:020000041000EA
:1000000000B5324B212058609868022188439860DF
:10001000D860186158612E4B002199600221596106
:100020000121F02299502B49196001219960352056
:1000300000F044F80222904214D00621196600F024
:1000400034F8196E01211966002018661A6600F04E
:100050002CF8196E196E196E052000F02FF8012189
:100060000842F9D1002199601B49196000215960AB
:100070001A491B48016001219960EB211966A021F2
:10008000196600F012F800219960164914480160C1
:100090000121996001BC002800D000471248134993
:1000A000086003C880F30888084703B5996A0420EC
:1000B0000142FBD001200142F8D103BD02B5186610
:1000C0001866FFF7F2FF186E186E02BD00000240BE
:1000D000000000180000070000035F00212200005C
:1000E000F4000018222000A00001001008ED00E03C
:1000F00000000000000000000000000074B24E7A12
:1001000000200420F7010010CB010010CD010010E9
:10011000C9010010C9010010C9010010C901001077
:10012000C9010010C9010010C9010010CF01001061
:10013000C9010010C9010010D1010010D301001045
:10014000C1010010C1010010C1010010C101001067
:10015000C1010010C1010010C1010010C101001057
:10016000C1010010C1010010C1010010C101001047
:10017000C1010010C1010010C1010010C101001037
:10018000C1010010C1010010C1010010C101001027
:10019000C1010010C1010010C1010010C101001017
:1001A000C1010010C1010010C1010010C101001007
:1001B000C1010010C1010010C1010010C1010010F7
:1001C000EFF30580103800BE00BE00BE00BE00BECA
:1001D00000BE00BEF2EB887194EB0210C4EB02107B
:1001E0003802001090A31AE71E481F49086006C88D
:1001F00081F3088810471D480068002801D019487D
:10020000F3E70DA40ECC002902D000F012F8F9E7B4
:100210001749184A002000E001C19142FCD116495B
:100220008847164988471649884700BEFDE701C937
:1002300001C29A42FBD37047C4EB0210C0000020F9
:100240004017002044020310000004200000042096
:1002500044020310001004200010042000000000DD
:10026000704700000000000008ED00E0000000D032
:10027000401700207432002069DC0110D502001004
:1002800029DC0110F8B5C04606480749091A8B1049
:10029000C90FC91810B5491003D0044B002B00D06A
:1002A000984710BD401700204017002000000000B4
:1002B000054B10B5002B03D00449054800E000BFF2
:1002C000FFF7E2FF10BDC04600000000B83100207B
:1002D000EC5D021010B503F069F816F0BBF8FCE70E
:1002E000012070479A235B00C1507047030030B56E
:1002F00004001033B0341A68FF2A09D0002A07D04E
:10030000C56892005259002A02D012688A4204D06D
:100310001033A342EFD1002030BD0120FCE7C046DE
:10032000F0B5040085B0002800DA84E00A211AF054
:100330003FFF6D463031CEB220000A212E701AF0F8
:1003400037FF041E00D1EEE00A211AF031FF3031F0
:10035000CEB220000A216E701AF02AFF041E00D1CE
:1003600020E120000A211AF023FF3031CFB2200013
:100370000A21AF701AF01CFF0024061E00D1F6E01F
:1003800030000A211AF014FF3031CFB230000A21B8
:10039000EF701AF00DFF061E00D1B9E00A211AF025
:1003A00007FF3031CFB230000A212F711AF000FF61
:1003B000061E00D1BBE00A211AF0FAFE3031CFB29E
:1003C00030000A216F711AF0F3FE061E00D1B9E069
:1003D0000A211AF0EDFE3031CFB230000A21AF71A0
:1003E0001AF0E6FE061E00D1C6E00A211AF0E0FE71
:1003F0003031CFB230000A21EF711AF0D9FE061E5B
:1004000000D1E3E00A211AF0D3FE3031CFB2300040
:100410000A212F721AF0CCFE002800D1E3E0303020
:100420007A4BC0B2002C00D1B8E02D2258701A705F
:100430000220233A31E0444220000A211AF0B8FE9B
:100440006D463031CEB220000A212E701AF0B0FE77
:10045000041E00D19BE00A211AF0AAFE3031CEB270
:1004600020000A216E701AF0A3FE041E00D174E071
:1004700020000A211AF09CFE3031CFB220000A2160
:10048000AF701AF095FE0124061E00D078E72D22E9
:1004900002205E4B1A705F702A3AA9180239097857
:1004A000E71C1954D11E6E5C18198670002938D0CB
:1004B000111F685C261DD855002941D0511F685C6A
:1004C000671D9855002946D0911F685CA61DD85518
:1004D00000295AD0D11F685CE71D9855002900D12A
:1004E0007DE00139685C0236D855002900D178E0FA
:1004F0002000093AA95C09309955002A00D17BE017
:100500002A781A540A2200211219995405B0F0BD14
:100510003E4B002C4AD02D2202201A705F70293ADF
:10052000BBE70322EFE7394B01221E70EBE7374BA5
:10053000002C3FD02D2202201A705F70283AACE7C1
:100540000422E0E7314B002C38D02D2202201A7013
:100550005F70273AA1E70522D5E72D2201242B4B16
:100560001A705E702B3A297899540222CBE7274BF8
:10057000032201201F7090E7244B002C22D02D2253
:1005800002201A705F70263A87E70622BBE72D2209
:100590001E4B01241A705E702C3AB4E718700A22C0
:1005A00001207AE7194B01221E70DCE704220120AA
:1005B0001F7072E7052201201F706EE706220120DE
:1005C0001F706AE7072201201F7066E70F4B002C9F
:1005D00014D02D2202201A705F70253A5DE70722A1
:1005E00091E708228FE7094B002C0BD02D22022027
:1005F0001A705F70243A50E7092284E7082201202C
:100600001F704AE7092201201F7046E70C1F0020D7
:1006100070B505000E002822002130301BF03AFE94
:100620002E4B28001C001900502258301BF038FEB9
:1006300023002A005033A83213CB13C213CB13C2AA
:1006400013CB13C228001B6800211360D03028226E
:100650001BF020FE280028220021F8301BF01AFE93
:100660002800213028220021FF301BF013FE280033
:10067000493028220021FF301BF00CFE2800713089
:1006800000212822FF301BF005FECC22002352005F
:10069000AB500432AB500432AE500432AB50104B6E
:1006A000FA222B60FE23902492005B00EA52FB3B6F
:1006B000FF3B6B6060001BF0F9FD04220523094934
:1006C000040019F065F88023E1219B002000EC5024
:1006D000490219F071F8280070BDC046FC70021084
:1006E0000873021000800340F0B5C64600260500DE
:1006F00000B5884646602822002130301BF0CAFD34
:10070000294928000C00502258301BF0C9FD220056
:100710002B005032A83383CA83C383CA83C383CADE
:1007200083C32800126800211A60D03028221BF0F1
:10073000B1FD280028220021F8301BF0ABFD280075
:10074000213028220021FF301BF0A4FD2800493071
:1007500028220021FF301BF09DFD28007130282247
:100760000021FF301BF096FDCC2342465B00EE508B
:100770000433EE500433EA500433EE500B4B2100A7
:100780002B602B00B133FF33783115C915C315C960
:1007900015C315C915C30A6828001A60EC235B004D
:1007A000EE5080BCB846F0BDFC700210D072021052
:1007B000F0B5C6460026050000B5884646602822EA
:1007C000002130301BF066FD304928000C0050221B
:1007D00058301BF065FD22002B005032A83383CA2D
:1007E00083C383CA83C383CA83C3280012680021DA
:1007F0001A60D03028221BF04DFD2800282200214D
:10080000F8301BF047FD2800213028220021FF305E
:100810001BF040FD2800493028220021FF301BF04A
:1008200039FD2800713000212822FF301BF032FDF5
:10083000CC2342465B00EE500433EE500433EA50C2
:100840000433EE502B002200B133FF33783283CAD9
:1008500083C383CA83C383CA83C3126821001A6017
:10086000EC235B00EE500A4B78312B602B00DD331C
:10087000FF3315C915C315C915C315C915C30A68B2
:1008800028001A6080BCB846F0BDC046FC7002105B
:1008900040730210F8B5002504000F0045602822BF
:1008A000002130301BF0F6FC294B20001E001900FF
:1008B000502258301BF0F4FC330022005033A83291
:1008C00043CB43C243CB43C243CB43C220001B684C
:1008D00000211360D03028221BF0DCFC20002822ED
:1008E0000021F8301BF0D6FC200021302822002106
:1008F000FF301BF0CFFC2000493028220021FF30C0
:100900001BF0C8FC2000713028220021FF301BF0B2
:10091000C1FCCC235B00E5500433E5500433E750C1
:100920000433E5500B4B220023600B4BAD32190012
:10093000FF322031C1C9C1C241C941C2203343CBBA
:1009400043C203CB03C2EA235B002000E550F8BD9D
:10095000FC700210787302107C710210F0B5DE4654
:1009600057464E464546E0B5002089B01EF07EFC55
:1009700008220020D4491EF0B7FCD44B1868441C50
:10098000431C00D1D3E1002C00DAA3E10A212000AE
:100990001AF00EFC6D463031CBB220000A212B70CC
:1009A00098461AF005FC071E00D1DAE10A211AF078
:1009B000FFFB3031697038000A211AF0F9FB8146DB
:1009C000002800D144E200260A2148461AF0F0FB34
:1009D0003031CBB248460A21AB709A461AF0E8FB98
:1009E000041E00D1C7E10A211AF0E2FB3031CBB27C
:1009F00020000A21EB7099461AF0DAFB041E00D1A0
:100A0000C5E10A211AF0D4FB3031CBB220000A2113
:100A10002B7199461AF0CCFB041E00D1F2E10A2199
:100A20001AF0C6FB3031CBB220000A216B71994617
:100A30001AF0BEFB041E00D1FDE10A211AF0B8FB3A
:100A40003031CBB220000A21AB7199461AF0B0FBCD
:100A5000041E00D11BE20A211AF0AAFB3031CBB2EE
:100A600020000A21EB7199461AF0A2FB041E00D166
:100A700025E20A211AF09CFB3031CBB220000A217A
:100A80002B7299461AF094FB002800D13EE23030D8
:100A90008F4CC0B2002E00D185E12D232370233B63
:100AA0006070320002209A465346E91802390978EC
:100AB0002154D91E6B5CD01C8446A018837003237C
:100AC000002946D05346191F131D9B466B5C99465F
:100AD00063464846E054002900D1A8E153465846F1
:100AE000591F531D9C466B5C2354002900D1BAE169
:100AF0005346991F931D9B466B5C99466346484637
:100B0000E054002900D1D6E153465846D91FD31DE1
:100B100099466B5C2354002900D1CEE108239C4602
:100B20005346083BE85C19004B469444E0540029C6
:100B300000D1E2E110005346093081466046093B8E
:100B4000E95C2154002B00D1F5E149462B78635430
:100B50000A23D3180022E254434604AD38002B7018
:100B60000A211AF025FB3031CBB238000A216B7014
:100B700098461AF01DFB071E00D128E138000A2113
:100B80001AF016FB3031CBB238000A21AB70984610
:100B90001AF00EFB071E00D122E10A211AF008FB11
:100BA0003031CBB238000A21EB7098461AF000FBC6
:100BB000071E00D11CE10A211AF0FAFA3031CBB23B
:100BC00038000A212B7198461AF0F2FA071E00D15C
:100BD00025E10A211AF0ECFA3031CBB238000A21B3
:100BE0006B7198461AF0E4FA071E00D134E10A212D
:100BF0001AF0DEFA3031CBB238000A21AB719846D8
:100C00001AF0D6FA071E00D13AE10A211AF0D0FAFA
:100C10003031CBB238000A21EB7198461AF0C8FA8D
:100C2000071E00D159E10A211AF0C2FA3031CBB2C5
:100C300038000A212B7298461AF0BAFA002800D11F
:100C40005DE13030C0B2002E00D0BCE10A230121AA
:100C50002070EA18023A1278F71C6254DA1EA85C77
:100C6000A1198870002A00D1CAE01A1FA95C301DA2
:100C7000E155002A00D1DCE05A1FA95C771D215400
:100C8000002A00D1FAE09A1FA95CB01DE155002AA4
:100C900000D10EE1DA1FA95CF71D2154002A00D112
:100CA00019E1013AA95C0230E155002A00D122E1A4
:100CB0003100093BEA5C09312254002B00D138E1B4
:100CC0002B7863540A2352E0F05D0210F81C0020D8
:100CD0000C1F0020C4430A2120001AF069FA6D4657
:100CE0003031CBB220000A212B7098461AF060FAFE
:100CF000071E00D1B9E00A211AF05AFA3031CBB2FE
:100D000038000A216B709A461AF052FA0126814681
:100D1000002800D058E653460121AE4C01226370F2
:100D20008946022329784E46E154022311E73023F5
:100D3000A84C2380200021F015FA21000200002099
:100D40001EF0D2FA0222A44900201EF0CDFA0020A3
:100D50001EF08CFA09B0F0BCBB46B246A946A046CC
:100D6000F0BD43469B4C0026237001236070002297
:100D70009B19E254DEE7974C002E1AD02D232370E6
:100D8000534663700323320002209A468CE6914C4E
:100D9000002E15D02D2323704B46637004233200A0
:100DA00002209A4680E60A232070002201209A46FB
:100DB0007AE6534623700323002201209A4673E605
:100DC0004B4623700423002201209A466CE6002E35
:100DD00069D14346237001232A78E2540223C6E7EF
:100DE000002E00D080E0434601212370032330E72A
:100DF000002E00D096E0434601212370042328E70B
:100E00000323B4E7734C002E00D19DE02D23237003
:100E10004B4663700523320002209A4644E6002EBA
:100E200000D08AE0434601212370052311E7042303
:100E30008FE604239BE7674C002E00D192E02D2320
:100E400023704B4663700623320002209A462BE63D
:100E5000002201235F4C65E7002E7CD1434601212F
:100E600023700623F5E6052373E62D23594C01264E
:100E700023704346A0706370012378E7052376E76B
:100E8000002E76D14346012123700723E1E6514C21
:100E9000002E75D02D2323704B466370072332003C
:100EA00002209A4600E62D232370434663700223F6
:100EB00092E706235BE706234BE6072349E6454C0A
:100EC000002E6BD02D2323704B4663700823320015
:100ED00002209A46E8E5072349E7002E57D143460A
:100EE000012123700823B4E62D23237043460221F9
:100EF00063700323ADE6082339E7082329E6002EB3
:100F000053D14346012123700923A2E6314C002E20
:100F100052D02D2323704B466370092332000220E8
:100F20009A46C1E52D2323704346022163700423B2
:100F30008FE609231BE709230BE62D232370434685
:100F400002216370052384E64B46237005230022AB
:100F500001209A46A8E52D232370434602216370A1
:100F6000062376E64B4623700623002201209A468C
:100F70009AE52D232370434602216370072368E618
:100F80004B4623700723002201209A468CE52D232F
:100F9000237043460221637008235AE64B462370B0
:100FA0000823002201209A467EE52D232370434624
:100FB0000221637009234CE64B462370092300226B
:100FC00001209A4670E52D23022123706070233B97
:100FD0003FE6C0460C1F0020FC5D0210F0B5DE4667
:100FE0004E4645465746C44BE0B59946C5B0190034
:100FF0000600012200201EF077F9C04B0A221900DA
:10100000002098461EF070F901220020BC491EF015
:101010006BF9BC4B002500934B46019343460124DA
:10102000012776B202933B00AB4033405AB2DBB2A9
:10103000202B00D918E2002B4AD0202B48D8009B47
:1010400092009B589F46631CDBB29846002C00D14F
:10105000B0E220000A211AF0ABF83031CBB2994649
:101060004A4604AB20000A211A709A461AF0A0F8EA
:10107000041E01D100F0CDFC0A211AF099F8534664
:10108000303109345970122C01D800F0A7FC5B787C
:101090009D4C63704B46A37003230022E2544346E9
:1010A000002B00D0B5E330332380200021F05AF824
:1010B0002100020000201EF017F9012293490020B0
:1010C0001EF012F90822002091491EF00DF9444645
:1010D0000135082DA7D1019B01229946029B494663
:1010E000984600201EF000F941460A2200201EF01A
:1010F000FBF80222874900201EF0F6F845B0F0BC4C
:10110000BB46B246A946A046F0BD631CDBB298467A
:10111000002C00D182E220000A211AF049F8303177
:10112000CBB299464A462CAB20000A211A709A4647
:101130001AF03EF8041E01D100F065FC0A211AF0F5
:1011400037F83031CBB29B4653465A4620000A212D
:101150005A701AF02DF86C4C002801D100F01AFCDE
:101160005346303020705B7863704B46A370032386
:101170000022E2544346002B00D08BE23033238020
:10118000200020F0EFFF2100020000201EF0ACF84C
:1011900001225E4900201EF0A7F80135162200202A
:1011A0005D491EF0A1F84446082D00D03BE792E7C8
:1011B000631CDBB29846002C00D120E220000A21FB
:1011C00019F0F6FF3031CBB299464A4624AB2000E5
:1011D0000A211A709A4619F0EBFF041E01D100F0A3
:1011E00021FC0A2119F0E4FF3031CBB29B46534673
:1011F0005A4620000A215A7019F0DAFF424C0028A2
:1012000000D1CFE35346303020705B7863704B469B
:10121000A37003230022E2544346002B00D0CBE20C
:1012200030332380200020F09DFF210002000020A9
:101230001EF05AF80122354900201EF055F80135FC
:101240000E22002035491EF04FF84446082D00D0EC
:10125000E9E640E7631CDBB29846002C00D1FBE1D5
:1012600020000A2119F0A4FF3031CBB299464A463A
:101270001CAB20000A211A709A4619F099FF041E2F
:1012800000D1BBE30A2119F093FF3031CBB29B466A
:1012900053465A4620000A215A7019F089FF1A4C09
:1012A000002800D185E35346303020705B786370AE
:1012B0004B46A37003230022E2544346002B00D088
:1012C0004DE230332380200020F04CFF210002004B
:1012D00000201EF009F801220C4900201EF004F83D
:1012E00001350D2200200E491DF0FEFF4446082D59
:1012F00000D098E6EFE6C046005E0210045E0210E1
:10130000105E0210606B02100C1F00208C5F021038
:10131000145E0210FC5D02105C5E02104C5E021056
:101320003C5E0210631CDBB29846002C00D184E1C5
:1013300020000A2119F03CFF3031CBB299464A46D1
:1013400014AB20000A211A709A4619F031FF041ECE
:1013500000D16DE30A2119F02BFF3031CBB29B464F
:1013600053465A4620000A215A7019F021FFDF4CDB
:10137000002800D124E35346303020705B7863703E
:101380004B46A37003230022E2544346002B00D0B7
:10139000C6E230332380200020F0E4FE210002006A
:1013A00000201DF0A1FF0122D14900201DF09CFF6B
:1013B00001350C220020CF491DF096FF4446082D30
:1013C00000D030E687E6631CDBB29846002C00D1E3
:1013D000F7E020000A2119F0EBFE3031CBB299463C
:1013E0004A460CAB20000A211A709A4619F0E0FE1A
:1013F000041E00D111E30A2119F0DAFE3031CBB21C
:101400009B4653465A4620000A215A7019F0D0FED6
:10141000B64C002800D1DAE25346303020705B78B9
:1014200063704B46A37003230022E2544346002B13
:1014300000D048E230332380200020F093FE2100CA
:10144000020000201DF050FF0122A94900201DF0DC
:101450004BFF01350B220020A7491DF045FF4446F4
:10146000082D00D0DFE536E6402B53D0802B00D08E
:101470002EE6631CDBB29846002C00D1FBE0200076
:101480000A2119F095FE3031CBB299464A463CAB61
:1014900020000A211A709A4619F08AFE041E00D113
:1014A000A2E20A2119F084FE3031CBB29B465346AA
:1014B0005A4620000A215A7019F07AFE8B4C0028F7
:1014C00000D159E25346303020705B7863704B4650
:1014D000A37003230022E2544346002B00D0C5E151
:1014E00030332380200020F03DFE21000200002048
:1014F0001DF0FAFE01227E4900201DF0F5FE0135A7
:101500001B2200207D491DF0EFFE4446082D00D02F
:1015100089E5E0E5631CDBB29846002C60D0200032
:101520000A2119F045FE3031CBB299464A4634AB18
:1015300020000A211A709A4619F03AFE041E00D1C2
:1015400057E20A2119F034FE3031CBB29B465346A4
:101550005A4620000A215A7019F02AFE634C0028CE
:1015600000D110E25346303020705B7863704B46F8
:10157000A37003230022E2544346002B00D0C1E0B5
:1015800030332380200020F0EDFD210002000020F8
:101590001DF0AAFE0122564900201DF0A5FE0135CE
:1015A0000E22002056491DF09FFE4446082D00D013
:1015B00039E590E531234D4C238001230022E2548C
:1015C00073E53023494C238010AB9A4631235246B1
:1015D000137053461B78237001230022E2542BE73B
:1015E0003023424C238038AB9A4631235246137045
:1015F00053461B78237001230022E254C2E73023B4
:101600003A4C238028AB9A463123524613705346F6
:101610001B78237001230022E25403E63023334C6D
:10162000238030AB9A4631235246137053461B78C1
:10163000237001230022E254A2E530232B4C2380A7
:1016400018AB9A4631235246137053461B782370C9
:1016500001230022E2549EE63023244C238020AB59
:101660009A4631235246137053461B782370012348
:101670000022E25427E630231C4C238040AB9A46DC
:1016800031235246137053461B78237001230022E6
:10169000E25427E70A21404619F08AFD3031CBB2E7
:1016A00030AA0A21404613709246039319F080FD38
:1016B00083460028BAD00A2119F07AFD3031CBB226
:1016C000994653464A460A2158465A7019F070FD09
:1016D000002800D1B1E15346303020705B78002201
:1016E0006370039BA3700323E25449E50C1F0020A1
:1016F0008C5F02102C5E0210205E0210845E0210CD
:10170000745E02100A21404619F052FD3031CBB20E
:1017100038AA0A21404613709246039319F048FDF7
:101720008346002800D163E70A2119F041FD3031DA
:10173000CBB2994653464A460A2158465A7019F088
:1017400037FD002800D1A9E15346303020705B7886
:1017500000226370039BA3700323E25412E70A2163
:10176000404619F025FD3031CBB220AA0A2140466F
:1017700013709246039319F01BFD8346002800D195
:1017800072E70A2119F014FD3031CBB29946534665
:101790004A460A2158465A7019F00AFD002800D11D
:1017A00075E15346303020705B7800226370039BF4
:1017B000A3700323E25486E50A21404619F0F8FCA1
:1017C0003031CBB228AA0A214046137092460393C7
:1017D00019F0EEFC8346002800D118E70A2119F021
:1017E000E7FC3031CBB2994653464A460A21584667
:1017F0005A7019F0DDFC002800D141E15346303029
:1018000020705B7800226370039BA3700323E25473
:1018100008E50A21404619F0CBFC3031CBB299469D
:101820004A4608AB0A2140461A709B4619F0C0FC94
:101830008246002800D138E10A2119F0B9FC303184
:10184000CBB299465B464A460A2150465A7019F077
:10185000AFFC002800D10CE15B46303020705B7893
:1018600063705B461B78A3700323A7E60A214046FA
:1018700019F09EFC3031CBB240AA0A2140461370C9
:101880009246039319F094FC8346002800D1FAE6AF
:101890000A2119F08DFC3031CBB2994653464A46A5
:1018A0000A2158465A7019F083FC002800D1D9E06B
:1018B0005346303020705B7800226370039BA37026
:1018C0000323E2540EE60A21404619F071FC303140
:1018D000CBB210AA0A21404613709246039319F026
:1018E00067FC8346002800D173E60A2119F060FCEA
:1018F0003031CBB2994653464A460A2158465A706F
:1019000019F056FC002800D1A5E053463030207075
:101910005B7800226370039BA3700323E2548BE582
:101920000A21404619F044FC3031CBB218AA0A21F2
:10193000404613709246039319F03AFC8346002800
:1019400000D182E60A2119F033FC3031CBB299463E
:1019500053464A460A2158465A7019F029FC002875
:1019600072D05346303020705B7800226370039B46
:10197000A3700323E2540EE55B46237053461B78A5
:1019800063700223A6E55B46237053461B786370A1
:101990000223EFE55B46237053461B7863700223F6
:1019A000FFF7E6FB5B46237053461B786370022308
:1019B00030E45B46237053461B78637002237AE45D
:1019C0005B46237053461B7863700223DBE45B465F
:1019D000237053461B786370022325E51B78344C33
:1019E00063700223FFF759FB4B46314C23700123F0
:1019F00070E54B462E4C23700123BBE54B462C4C27
:101A00002370012357E44B46294C23700123FFF731
:101A1000AFFB0123264CFFF740FB4B46244C2370C1
:101A2000012301E54B46224C23700123FFF7F2FB13
:101A30004B461F4C23700123A5E44B4623705346AD
:101A40001B7863700223F5E54B46237053461B78E1
:101A500063700223FDE54B46237053461B78637089
:101A60000223BAE54B46237053461B78637002236A
:101A70000DE64B4623705B461B78637002239DE5A1
:101A80004B46237053461B7863700223C3E54B46D5
:101A9000237053461B7863700223E9E54B4623709D
:101AA00053461B7863700223A6E54B46237084E5FA
:101AB0000C1F0020F0B5DE46454657464E46E0B5C1
:101AC0000C0093B0060014F0DFFC084BA400011CCE
:101AD000051CE05898461AF0EBFA071E08D013B020
:101AE000F0BCBB46B246A946A046F0BD2832002055
:101AF000736801221E684346E550494B00201900D7
:101B00009A461DF0F1FB474B0A22190000209B4624
:101B10001DF0EAFB0122444900201DF0E5FB0222F2
:101B2000002042491DF0E0FBFF231C0034403342FB
:101B300000D1EDE10A21200019F03AFB303102AB6F
:101B4000CEB21E700A212000994619F031FB804662
:101B5000031E00D12BE20A2119F02AFB4B4630313B
:101B6000597043460933324C122B00D824E24B46BD
:101B70005B78A6706370E77006AB99461E700A2109
:101B8000404619F015FB4B463031CFB240460A2192
:101B90005F7019F00DFB002800D112E24B46303087
:101BA00020705B78A670637003230022E25420004B
:101BB00020F0D8FA2100020000201DF095FB02223F
:101BC0001C4900201DF090FB1B49281C1AF041FA0B
:101BD0001AF0A4FA061E00D19EE1002800DAB5E151
:101BE0000A2119F0E5FA3031CBB20AAD0A213000F2
:101BF0002B70994619F0DCFA8046002800D14DE29E
:101C00000A21404619F0D4FA3031697040460A2161
:101C100019F0CEFA0027061E00D11EE20EE0C046E3
:101C2000005E0210AC5E0210105E0210A85E021090
:101C30000C1F0020B85E02100000204130000A2175
:101C400019F0B6FA3031CBB230000A21AB700193F3
:101C500019F0AEFA061E00D1C7E10A2119F0A8FA60
:101C60003031CBB230000A21EB70019319F0A0FAA9
:101C7000061E00D1CCE10A2119F09AFA3031CBB21C
:101C800030000A212B71019319F092FA061E00D13F
:101C9000D3E10A2119F08CFA3031CBB230000A219D
:101CA0006B71019319F084FA061E00D1D7E10A2165
:101CB00019F07EFA3031CBB230000A21AB710193BA
:101CC00019F076FA061E00D1F5E10A2119F070FA32
:101CD0003031CBB230000A21EB71019319F068FA70
:101CE000061E00D103E20A2119F062FA3031CBB2AC
:101CF00030000A212B72019319F05AFA002800D102
:101D000013E23030C0B2002F00D048E10A23002691
:101D1000012120700193EA18023A1278A019625446
:101D2000DA1EAB5CF11C83700323002A33D0019BC5
:101D3000301D1A1FAB5C6354002A00D18BE1019B5C
:101D4000711D5A1FAB5C2354002A00D19CE1019BFA
:101D5000B01D9A1FAB5C6354002A00D1BDE1019B0A
:101D6000F11DDA1FAB5C2354002A00D1B7E1019BBF
:101D70000230083B1A00EB5C6354002A00D1D2E128
:101D8000019B0231093BEA5C2254002B00D1EAE1BD
:101D90002B7863540A2300229B19E2544B460EAD64
:101DA00040462B700A2119F003FA3031CEB240467A
:101DB0000A216E7019F0FCF98046002800D105E177
:101DC00040460A2119F0F4F93031CEB240460A21DA
:101DD000AE7019F0EDF98046031E00D1FEE00A2135
:101DE00019F0E6F93031CEB240460A21EE7019F012
:101DF000DFF98046031E00D103E10A2119F0D8F96A
:101E00003031CEB240460A212E7119F0D1F9804608
:101E1000031E00D10AE10A2119F0CAF93031CEB20D
:101E200040460A216E7119F0C3F98046031E00D1A5
:101E300021E10A2119F0BCF93031CEB240460A2125
:101E4000AE7119F0B5F98046031E00D12DE10A21CB
:101E500019F0AEF93031CEB240460A21EE7119F0D8
:101E6000A7F98046031E00D13BE10A2119F0A0F931
:101E70003031CEB240460A212E7219F099F900286D
:101E800000D15DE13030C0B2002F00D0B0E10A23B4
:101E900001212070EA18023A1278F81C6254DA1E06
:101EA000AE5CE1198E70002A00D1BDE01A1FA95C5A
:101EB0003E1D2154002A00D1CBE05A1FA95C781D99
:101EC000A155002A00D1DDE09A1FA95CBE1D215456
:101ED000002A00D1FFE0DA1FA95CF81DA155002AF5
:101EE00000D10FE1013AA95C02362154002A00D149
:101EF00017E13900093BEA5C0931A255002B00D1FA
:101F000033E12B7863540A230022DB19E25405E005
:101F1000BA4CCF3B23804AE630232380200020F0B8
:101F200021F92100020000201DF0DEF951460122B6
:101F300000201DF0D9F959460A2200201DF0D4F9DD
:101F40000222AF4900201DF0CFF9C8E546420A2120
:101F5000300019F02DF93031CBB20AAD0A21300032
:101F60002B70994619F024F98046002800D18DE0A5
:101F70000A2119F01DF93031CBB240460A216B70AD
:101F8000019319F015F90127061E00D056E6019BB2
:101F90000136637002232A78E2540223FBE62D23E4
:101FA0002370233B3E00022160700193B3E6934C03
:101FB000013360702670F8E54B461B78A77063709C
:101FC000DAE5F3B2637027700223EEE5002F7DD1CE
:101FD000012326702A78E254022395E7002F00D0CF
:101FE00099E001212670033354E7002F00D18BE0E4
:101FF0002D232370019B3E00637003230221019374
:1020000089E6002F00D0A8E001212670043341E7C3
:10201000002F00D19AE02D232370019B3E006370B6
:1020200004230221019376E603236DE7002F00D0FD
:10203000A4E00121267005332CE7002F00D196E0A3
:102040002D232370019B3E00637005230221019321
:1020500061E6042358E704239DE601239BE7002F54
:1020600000D191E02D232370019B3E006370062375
:10207000022101934FE6002F00D08CE00121267051
:10208000063307E705233FE7052384E62D23237066
:102090004B4601276370A070012335E74346637008
:1020A0004B460027237001232EE7002F79D1012111
:1020B00026700733EEE6002F79D02D232370019B85
:1020C0003E00637007230221019324E62D236670EE
:1020D00023702B3B7EE7062316E706235BE60723E8
:1020E00059E6002F6AD1012126700833D2E6002F6D
:1020F0006AD02D232370019B3E00637008230221C8
:10210000019308E60723FFE6019B002623700323C3
:1021100001210193FFE52D230221237066702A3BE4
:10212000B8E60823F0E6082335E6002F53D02D2328
:102130002370019B3E006370092302210193EAE5AD
:10214000002F4FD1092301212670A3E6019B002611
:102150002370042301210193DDE52D230221237047
:102160006670293B96E6092315E60923CCE6019B18
:1021700000262370052301210193CCE52D230221A4
:1021800023706670283B85E6019B0026237006239A
:1021900001210193BFE52D23022123706670273BA7
:1021A00078E62D23022123706670263B72E6019BA0
:1021B00000262370072301210193ACE52D23022182
:1021C00023706670253B65E6019B0026237008237B
:1021D000012101939FE5019B002623700923012122
:1021E000019398E52D23022123706670243B51E66C
:1021F0002D23022123706070233B4BE60C1F00202F
:10220000FC5D021070B51F4C1F4E2500283502E002
:102210000434AC4221D020680028F9D003681B693F
:1022200098470028F4D0206814F0DCFA206814F0F5
:1022300087FA206803689B69984733689842E7D01B
:102240002068043403689B6998473060FEF7C6FE37
:1022500000201DF00BF8AC42DDD10C4B1B78002B9D
:102260000ED000240A4D2868002805D02100FFF771
:1022700021FC00201CF0FAFF013404350A2CF2D1B5
:1022800070BDC04688310020602D0020A00F0020C6
:10229000B0190020F0B54E46DE4657464546036865
:1022A000E0B50C3B1B680600C35893B01A3B032BE8
:1022B00001D900F0BFFCE020D94ADCB21368250345
:1022C000C0016B400340D74803600420D64B186020
:1022D000FC3013680342FCD0536834711368E02269
:1022E0006B40D2011340CF4A802013600422CE4BB2
:1022F00040001A60CA4A13680342FCD055682D0496
:102300002B0C0193C94A8B009B58002B03D00198DA
:10231000834200DCFFE1C64B0122190000209946F0
:102320001CF0E2FFC34B0922190000209A461CF062
:10233000DBFF0122C04900201CF0D6FF0122BF496B
:1023400000201CF0D1FFBE4B0122190000209B464B
:102350001CF0CAFF33680C3B1B68F458002C00D1FA
:1023600017E200DADEE10A21200018F021FF303107
:10237000CBB202AA0A21200013701D00904618F06B
:1023800017FF071E00D175E30A2118F011FF42461E
:102390003031CBB238000A2153701D0018F008FF0D
:1023A000071E01D100F0E2FB38000A2118F000FFFF
:1023B00042463031CBB238000A2193701D0018F02C
:1023C000F7FE0027041E00D19CE320000A2118F02C
:1023D000EFFE42463031CBB220000A21D3701D00FF
:1023E00018F0E6FE041E00D125E30A2118F0E0FEF5
:1023F00042463031CBB220000A2113711D0018F083
:10240000D7FE041E00D139E30A2118F0D1FE42465E
:102410003031CBB220000A2153711D0018F0C8FEE4
:10242000041E00D149E30A2118F0C2FE42463031B1
:10243000CBB220000A2193711D0018F0B9FE041ED2
:1024400000D166E30A2118F0B3FE42463031CBB228
:1024500020000A21D3711D0018F0AAFE041E00D12D
:102460007BE30A2118F0A4FE42463031CBB22000B3
:102470000A2113721D0018F09BFE002800D1D0E243
:102480003030704CC0B2002F00D1D8E32D23022190
:1024900023706070233B42464546D218023A1278B8
:1024A000E0196254DA1EAD5CF91C8570002A00D177
:1024B000D8E245461A1FAD5C381D6554002A00D18C
:1024C000EFE245465A1FAD5C791D2554002A00D124
:1024D00006E345469A1FAD5CB81D6554002A00D13D
:1024E00026E34546DA1FAD5CF91D2554002A00D1CC
:1024F00040E34546013AAD5C02306554002A00D104
:1025000042E34246093BD25C02312254002B00D107
:1025100050E343461B7863540A230022DB19E2543C
:1025200033680C3B1B68F758002F00D03BE1302389
:10253000238020001FF016FE2100020000201CF066
:10254000D3FE0122404900201CF0CEFE0122594654
:1025500000201CF0C9FE019B002B00D1F9E11A00FC
:102560009B0015000AAED34200D5F5E130231000E0
:1025700033700A2118F01CFE3031CFB228000A2136
:10258000777018F015FE8046002800D1D2E20A21AB
:1025900018F00EFE3031CDB240460A21B57018F069
:1025A00007FE8346002800D123E20A2118F000FE2E
:1025B0003031CDB258460A21F57018F0F9FD834646
:1025C000002800D148E20A2118F0F2FD3031CDB2E6
:1025D00058460A21357118F0EBFD002800D15EE263
:1025E00006233030C5B2F218023A127825706270B4
:1025F000DA1EB15CA170002A00D12FE21A1FB15C73
:10260000E170002A00D151E2053BF25C2271002BFF
:1026100000D16BE2337863710023A37116E0C046EA
:1026200000C0044000D0044000E00440D42A002050
:10263000005E0210BC5E0210105E0210C85E021046
:102640008C5F02100C1F0020CC5E021030230EADF8
:102650002B706F700A2140469B4618F0A9FD30315F
:10266000CFB240460A21AF7018F0A2FD061E00D17D
:1026700082E20A2118F09CFD3031CFB230000A21ED
:10268000EF7018F095FD061E00D187E20A2118F0C0
:102690008FFD3031CFB230000A212F7118F088FD44
:1026A000002800D188E2303020702B796370062337
:1026B000EA78A2701A1FA95CE170002A00D1F2E149
:1026C000053BEA5C2271002B00D111E22B78062138
:1026D000637100230022E3185A5420001FF042FDCA
:1026E0002100020000201CF0FFFD012249460020CD
:1026F0001CF0FAFD0922514600201CF0F5FD0222D3
:102700000020D9491CF0F0FD13B0F0BCBB46B24626
:10271000A946A046F0BD103189008B58834200DAEB
:10272000F9E5F1E7644220000A2118F041FD30315B
:1027300002ABCFB220000A211F70984618F038FD76
:10274000041E00D1FAE10A2118F032FD434630316F
:10275000CFB220000A215F7018F02AFD041E00D1BC
:1027600049E120000A2118F023FD42463031CBB266
:1027700020000A2193701D0018F01AFD0127041E85
:1027800000D022E62D23B94C02212370657003236B
:1027900081E63023B54C238033680C3B1B68F75827
:1027A000002F00D1C3E6002F00DAF1E038000A2143
:1027B00018F0FEFC3031CBB206AE38000A2133707F
:1027C000984618F0F5FC071E00D18BE10A2118F09D
:1027D000EFFC3031CBB238000A2173701D0018F0C5
:1027E000E7FC00278046002800D163E140460A212B
:1027F00018F0DEFC3031CBB240460A21B3701D0028
:1028000018F0D6FC8046002800D1EAE00A2118F032
:10281000CFFC3031CBB240460A21F3701D0018F0D6
:10282000C7FC8046002800D10FE10A2118F0C0FC47
:102830003031CBB240460A2133711D0018F0B8FC8C
:102840008046002800D123E10A2118F0B1FC303184
:10285000CBB240460A2173711D0018F0A9FC8046D6
:10286000002800D133E10A2118F0A2FC3031CBB2AC
:1028700040460A21B3711D0018F09AFC80460028DA
:1028800000D14FE10A2118F093FC3031CBB2404621
:102890000A21F3711D0018F08BFC8046002800D13E
:1028A00055E10A2118F084FC3031CBB240460A21B0
:1028B00033721D0018F07CFC002800D1AAE03030F3
:1028C000C0B2002F00D0AFE101210A232070F2181E
:1028D000023A1278F81C6254DA1EB55CE1198D7068
:1028E000002A00D1BCE01A1FB55C391D2554002A0E
:1028F00000D1DDE05A1FB55C781D6554002A00D177
:10290000ECE09A1FB55CB91D2554002A00D1FEE009
:10291000DA1FB55CF81D6554002A00D115E10822C4
:1029200094461A00083AB15CBC442154002A00D1F4
:102930002CE139006046093BF25C09312254002B3E
:1029400000D131E1337863540A230022DB19E254C9
:10295000EFE530332380C0E630233370444B31271A
:102960002380012301210222984633780025A354B5
:102970004346E018857030200EAD2870002901D044
:102980002D212170414667542978A1540221A1E6E6
:102990007F4238000A2118F00BFC3031CBB206AE72
:1029A00038000A213370984618F002FC071E00D147
:1029B000A1E00A2118F0FCFB3031CBB23800737073
:1029C0000A211D0018F0F4FB01278046031E00D0E9
:1029D0000CE72D332370022365703278E254022312
:1029E000B3E7002F12D02D2302212370657003233B
:1029F0006DE70323F7E51D4C2D2367700127237036
:102A00002B3B42461278E254022386E50121032340
:102A100025705CE7002F00D0FCE001210923257020
:102A200055E7124C002F00D1FAE02D23022123702C
:102A3000657009232FE50D4C002F00D1B6E02D2342
:102A4000022123706570042325E5002F00D09FE04C
:102A50000121042325703AE70423C4E5E270F5E57B
:102A6000032372E7032358E5FC5D02100C1F0020CE
:102A70002D310000744C012325704EE5724C002F5F
:102A800000D1A5E02D23022123706570052302E506
:102A9000002F00D096E001210523257017E70523BC
:102AA000A1E5042339E50023042113E62271CDE5D5
:102AB00004234AE7012325708FE7634C002F00D1E0
:102AC00090E02D230221237065700623E3E4002F9C
:102AD00000D081E0012106232570F8E6052334E7C4
:102AE00005231AE54346237001232EE76371ADE504
:102AF00000230521EEE52D23237043460127637053
:102B0000012322E7504C012103232570C3E406234F
:102B10001BE74D4C002F6FD02D23022123706570D1
:102B20000723B8E4002F61D1012107232570CEE6E9
:102B30000623F2E400210122277016E72D23424CE0
:102B4000237067702C3B0127E7E40723FDE6002F85
:102B500056D1012108232570B9E63B4C002F55D0F2
:102B60002D23022123706570082394E4364C012341
:102B7000257046E70723D0E427706B780321637044
:102B80005B46A3700023A5E50823C6E40823DCE622
:102B90002D23022123706570042398E62770AB78FB
:102BA00063706A78042384E50923CEE601210423B7
:102BB000257070E40923B0E42770EB786370AA787D
:102BC000052376E52D2302212370657005237EE61B
:102BD0000121052325705EE42D23022123706570F9
:102BE000062374E601210623257054E42D230221D7
:102BF0002370657007236AE60121072325704AE4E4
:102C00002D23022123706570082360E6012108232B
:102C1000257040E42D23022123706570092356E6B8
:102C200001210923257036E42D23022123706070D1
:102C3000233B4CE601235B420193FFF763FB012139
:102C40000A23207027E4C0460C1F0020F0B54E4632
:102C5000DE4657464546E0B5060000688BB043089F
:102C60001F281FD807221A4093009B18DC4A9B009C
:102C7000DC4D9A181468AC460122634414401C6071
:102C8000D02382401B065C68144023005A1E9341E7
:102C900001948B420AD00BB0F0BCBB46B246A946A9
:102CA000A046F0BD03221A400832DDE7CE4B0122D8
:102CB0001900002099461CF017FBCC4B0A22190082
:102CC00000209A461CF010FB0122C94900201CF08C
:102CD0000BFB0122C74900201CF006FBC64B01225A
:102CE000190000209B461CF0FFFA3568002D00D12A
:102CF00099E000DAB7E10A21280018F059FA3031DA
:102D0000CBB202AA0A21280013701C00904618F0CA
:102D10004FFA071E00D183E20A2118F049FA424611
:102D20003031CBB238000A2153701C0018F040FA41
:102D3000071E00D1C8E238000A2118F039FA4246CD
:102D40003031CBB238000A2193701C0018F030FAF1
:102D50000027051E00D19FE228000A2118F028FA5A
:102D600042463031CBB228000A21D3701C0018F043
:102D70001FFA051E00D13FE20A2118F019FA424657
:102D80003031CBB228000A2113711C0018F010FA60
:102D9000051E00D14EE20A2118F00AFA42463031EF
:102DA000CBB228000A2153711C0018F001FA051E4D
:102DB00000D155E20A2118F0FBF942463031CBB27E
:102DC00028000A2193711C0018F0F2F9051E00D1A9
:102DD0006DE20A2118F0ECF942463031CBB22800FE
:102DE0000A21D3711C0018F0E3F9051E00D1F3E1AC
:102DF0000A2118F0DDF942463031CBB228000A2111
:102E000013721C0018F0D4F9002800D16EE23030A3
:102E10007A4DC0B2002F00D1C4E22D2302212B70C5
:102E20006870233B55E13023744D2B803768002FA9
:102E300000D1E5E000DA92E138000A2118F0B8F993
:102E40003031CBB206AE38000A213370984618F004
:102E5000AFF9071E00D10CE20A2118F0A9F93031B0
:102E6000CBB238000A2173701C0018F0A1F90027BA
:102E70008046002800D1EAE140460A2118F098F97E
:102E80003031CBB240460A21B3701C0018F090F9E3
:102E90008046002800D1A9E10A2118F089F93031D3
:102EA000CBB240460A21F3701C0018F081F980462D
:102EB000002800D1AAE10A2118F07AF93031CBB20A
:102EC00040460A2133711C0018F072F98046002830
:102ED00000D1A9E10A2118F06BF93031CBB240469C
:102EE0000A2173711C0018F063F98046002800D194
:102EF000B0E10A2118F05CF93031CBB240460A212A
:102F0000B3711C0018F054F98046002800D1C8E1C4
:102F10000A2118F04DF93031CBB240460A21F37145
:102F20001C0018F045F98046002800D14DE10A2127
:102F300018F03EF93031CBB240460A2133721C0002
:102F400018F036F9002800D1D9E13030C0B2002F96
:102F500000D021E20A2301212870F218023A1278E7
:102F6000F81C6A54DA1EB45CE9198C70002A00D18E
:102F700054E11A1FB45C391D2C54002A00D162E1BF
:102F80005A1FB45C781D6C54002A00D177E19A1F57
:102F9000B45CB91D2C54002A00D193E1DA1FB45C53
:102FA000F81D6C54002A00D194E1082294461A00BE
:102FB000083AB15CBC442954002A00D192E139009E
:102FC0006046093BF25C09312A54002B00D1A2E192
:102FD00033786B540A230022DB19EA5412E0C0460E
:102FE0000000054000100540005E0210D05E021097
:102FF000105E0210C85E02108C5F02100C1F0020D1
:1030000030232B8028001FF0ADF82900020000209B
:103010001CF06AF90122D14900201CF065F95946DB
:10302000012200201CF060F9019C2800631E9C41D5
:10303000002330346B702C701FF094F829000200CC
:1030400000201CF051F94946012200201CF04CF9E7
:1030500051460A2200201CF047F90222C0490020F4
:103060001CF042F917E66D4228000A2118F0A0F87A
:10307000303102ABCFB228000A211F70984618F0F9
:1030800097F8051E00D199E00A2118F091F84346FF
:103090003031CFB228000A215F7018F089F8051E80
:1030A00000D1EEE028000A2118F082F842463031C3
:1030B000CBB228000A2193701C0018F079F8012780
:1030C000051E00D048E62D23A64D02212B700323B8
:1030D0006C7042464446D218023A1278E8196A5493
:1030E000DA1EA45CF91C8470002A00D194E04446E6
:1030F0001A1FA45C381D6C54002A00D1A5E0444678
:103100005A1FA45C791D2C54002A00D1B5E0444616
:103110009A1FA45CB81D6C54002A00D1D0E044462C
:10312000DA1FA45CF91D2C54002A00D1D0E04446DB
:10313000013AA45C02306C54002A00D1D4E042462B
:10314000093BD25C02312A54002B00D1E9E043460E
:103150001B786B540A230022FB18EA5466E67F4270
:1031600038000A2118F024F83031CBB206AE38000E
:103170000A213370984618F01BF8071E17D00A2151
:1031800018F016F83031CBB2380073700A211C00E9
:1031900018F00EF801278046031E00D06CE62D3390
:1031A0002B7002236C703278EA54022313E72D232C
:1031B0002B70434601276B7001230CE72D23694DCB
:1031C0002B706F702C3B0127C5E7002F00D0CFE09C
:1031D000082301212C70C0E6624D002F00D1CDE004
:1031E0002D2302212B706C70082372E7002F73D1FE
:1031F000032301212C70B0E65A4D002F00D18CE042
:103200002D2302212B706C70042362E7002F7CD1E8
:10321000042301212C70A0E603239CE70323DAE6B4
:10322000504D01232C7096E7002F7CD105230121FE
:103230002C7092E64B4D002F7BD02D2302212B705A
:103240006C70052345E70423C5E6042383E70123C7
:103250002C70A8E7002F70D1062301212C707CE68A
:10326000404D002F6FD02D2302212B706C70062350
:103270002FE743462B700123ADE605236BE70523BB
:10328000A9E6384D2D236F7001272B702B3B42464A
:103290001278EA5402235EE7324D012103232C7099
:1032A00017E7002F53D1072301212C7055E62D4D30
:1032B000002F59D02D2302212B706C70072308E7B3
:1032C000062348E7062386E6264D01232C70DEE719
:1032D000072340E707237EE62D2302212B706C7025
:1032E00003233AE6082376E6082334E71D4D002F32
:1032F0004ED02D2302212B706C700923E9E6002F9C
:1033000040D1092301212C7027E62D2302212B70A7
:103310006C70042321E609235DE6012104232C704F
:10332000D7E6092317E72D2302212B706C700523A4
:1033300013E6012105232C70CBE62D2302212B70EF
:103340006C70062309E6012106232C70C1E62D23AB
:1033500002212B706C700723FFE5C046CC5E021083
:10336000FC5D02100C1F0020012107232C70B0E629
:103370002D2302212B706C700823EEE50121082318
:103380002C70A6E62D2302212B706C700923E4E536
:10339000012109232C709CE62D2302212B706870DB
:1033A000233BDAE501210A23287092E600B583B0B9
:1033B0001AF066FD01236A4601A9002093801BF0E4
:1033C000ABF803B000BDC046F0B54E464546DE46FC
:1033D00057460123E0B501265F4D604CA3B02B702A
:1033E0000120002140421BF00DF900201BF0E2FEFD
:1033F0000028F5D080222100002052001BF0E8FEBA
:1034000000280ADD2318013B1B780A2B07D00D2B5F
:1034100005D0FE2803DC2354E2E72E70E0E700230A
:103420004E21235420002B701EF05AFB002800D19F
:10343000A2E04B4F0A223860002101301EF052FA00
:10344000484B18609B46484B00931B6801339842D9
:1034500007D0200045491EF045FD002801D100F0AD
:1034600091FE2A2120001EF03BFB002801D100F034
:10347000AAFC3860001B0130231880B2984600284F
:1034800000D189E20200424492B2012091461F001D
:103490003749384B3A78013716005E40064076428D
:1034A0000E405B08734056085E40064076420E4070
:1034B0005B08734096085E40064076420E405B080B
:1034C0007340D6085E40064076420E405B0873406B
:1034D00016095E40064076420E405B08734056096E
:1034E0005E40064076420E405B08734096095E409F
:1034F000064076420E405B087340D2095A400240B3
:1035000052420A405B085340BAB29145C2D1DB43F4
:103510001A021B041B0E13431B041B0C0021404604
:1035200099461EF021F918F065F9484500D03EE2B1
:103530005B46009A1B6813603B2120001EF0D0FA06
:10354000002800D100E201232B7023B0F0BCBB4661
:10355000B246A946A046F0BD693200200C1D0020ED
:10356000FC1C0020081D0020F81C0020DC5E02105E
:1035700008840000FFFF00002A2120001EF0B0FA9E
:103580000028D9D00122EC4900201BF0ADFE2922F1
:103590000020EA491BF0A8FEE94B1C68002C01D171
:1035A00000F0FCFB01DA00F0F6FF20000A2117F022
:1035B000FFFD3031CBB21AAE20000A2133709B469A
:1035C00017F0F6FD041E019001D101F047F90A2120
:1035D00017F0EEFD3031CAB220000A217270924617
:1035E00017F0E6FD0023071E994601D101F0FDF812
:1035F0000A21380017F0DCFD3031CBB238000A2147
:10360000B3709A4617F0D4FD041E01D101F0C1F841
:103610000A2117F0CDFD3031CFB220000A21F7701A
:1036200017F0C6FD041E01D101F0A7F80A2117F01A
:10363000BFFD3031CFB220000A21377117F0B8FD3D
:10364000041E01D101F0C5F80A2117F0B1FD303197
:10365000CFB220000A21777117F0AAFD041E01D114
:1036600001F006F90A2117F0A3FD3031CFB2200096
:103670000A21B77117F09CFD041E01D100F05DFF17
:103680000A2117F095FD3031CFB220000A21F771E1
:1036900017F08EFD041E01D101F0DBF90A2117F0AD
:1036A00087FD3031CFB220000A21377217F080FD3C
:1036B000002801D101F098F903004A463033A14CAB
:1036C000DBB2002A01D001F037FA23700123002772
:1036D0009A4609335146F218023A12786254DA1EB9
:1036E000F91CB05C8C46E1198870002A01D101F008
:1036F00029F8391D884661461A1FB05C6054002ABB
:1037000001D101F08DF84046791D5A1F0091B15C3E
:103710002154002A01D101F080F8B91D9A1F884672
:10372000B15C781D2154002A01D101F073F84046A4
:10373000F91DDA1F0091B15C2154002A01D101F07A
:1037400069F93900013A08318846B15CF81D215405
:10375000002A01D101F0F4F83A004146093BF05C3F
:1037600009326054002B01D101F0E7F83378A354FB
:103770000A220021E31999545A461EAB98461A7042
:10378000019B0A3118009B46009717F011FD434634
:103790003031CEB258460A215E7017F009FD8346DB
:1037A000002801D100F054FF58460A2117F000FD0F
:1037B00043463031CEB258460A219E7017F0F8FCCD
:1037C0008346002801D100F0F9FF0A2117F0F0FC30
:1037D00043463031CEB258460A21DE7017F0E8FC7D
:1037E0008346002801D100F0E1FF0A2117F0E0FC38
:1037F00043463031CEB258460A211E7117F0D8FC2C
:103800008346002801D101F01EF80A2117F0D0FCF0
:1038100043463031CEB258460A215E7117F0C8FCDB
:103820008346002801D101F006F80A2117F0C0FCF8
:1038300043463031CEB258460A219E7117F0B8FC8B
:103840008346002801D100F0EEFF0A2117F0B0FCFA
:1038500043463031CEB258460A21DE7117F0A8FC3B
:103860008346002801D101F056F80A2117F0A0FC88
:1038700043463031CEB258460A211E7217F098FCEA
:10388000002801D101F03FF84B463030C6B2002B82
:1038900001D000F04AFE0A2342465146E65546460C
:1038A000D218023A1278F81C6254DA1EB65CE1199A
:1038B0008E70002A01D100F05DFF46461A1FB65CEB
:1038C000391D2654002A01D100F080FF46465A1FB8
:1038D000B65C781D6654002A01D100F0BCFF464654
:1038E0009A1FB65CB91D2654002A01D100F08FFF43
:1038F0004046DA1F805CFE1D6054002A01D101F0B1
:10390000C7F84046013A805C0231A055002A01D137
:1039100001F0ABF84246093BD25C09376254002BF8
:1039200001D100F0EDFF43461B78E3550A23002147
:10393000009AA218D15434E2005E0210645F0210B3
:10394000F81C00200C1F0020472120001EF0C8F8A2
:10395000002800D1F9E50C4B0021186001301DF062
:1039600003FF17F047FF052800D9EEE5074B1B784A
:10397000002B00D1E9E50122054900201BF0B4FC31
:103980002022044912E2C046FC1C002068320020BC
:10399000005E0210905F021000230021404699460D
:1039A0001DF0E2FE17F026FF484500D1C0E50122D8
:1039B000F64900201BF098FC1E220020F4491BF061
:1039C00093FC009B1C68002C00D1C9E101DA00F0D7
:1039D00013FE20000A2117F0EBFB3031CBB20AAE08
:1039E00020000A2133709B4617F0E2FB041E019071
:1039F00001D100F098FF0A2117F0DAFB3031CAB28A
:103A000020000A217270924617F0D2FB0023071E95
:103A1000994601D100F0B1FD0A21380017F0C8FB2A
:103A20003031CBB238000A21B3709A4617F0C0FB90
:103A3000041E01D100F049FE0A2117F0B9FB303114
:103A4000CFB220000A21F77017F0B2FB041E01D19B
:103A500000F0D1FE0A2117F0ABFB3031CFB22000CD
:103A60000A21377117F0A4FB041E01D100F01AFFE0
:103A70000A2117F09DFB3031CFB220000A21777167
:103A800017F096FB041E01D100F06AFD0A2117F021
:103A90008FFB3031CFB220000A21B77117F088FBBD
:103AA000041E01D100F094FF0A2117F081FB303190
:103AB000CFB220000A21F77117F07AFB041E01D162
:103AC00000F07BFF0A2117F073FB3031CFB22000EA
:103AD0000A21377217F06CFB002801D100F062FF59
:103AE00003004A463033AB4CDBB2002A01D001F070
:103AF00011F82370012300279A4609335146F21822
:103B0000023A1278E0196254F91CDA1E8846B15C58
:103B10008170002A01D100F0DEFE4046391D1A1FD7
:103B20000091B15C2154002A01D100F0D1FE791D31
:103B30005A1F8846B15C381D2154002A01D100F07B
:103B40002EFF4046B91D9A1F0091B15C2154002AF6
:103B500001D100F021FFF91DDA1F8846B15CB81DC4
:103B60002154002A01D100F00BFF023000904046A2
:103B7000013AB15C2154002A01D100F0FEFE3A0066
:103B8000093BF15C009809322154002B01D100F06F
:103B9000FAFE3378A3540A230021E219D1545A467D
:103BA0000EAB98461A70019B0A3118009B4600978D
:103BB00017F0FEFA43463031CEB258460A215E7005
:103BC00017F0F6FA8346002801D100F0C6FD5846EA
:103BD0000A2117F0EDFA43463031CEB258460A2199
:103BE0009E7017F0E5FA8346002801D100F0ADFD84
:103BF0000A2117F0DDFA43463031CEB258460A2189
:103C0000DE7017F0D5FA8346002801D100F03CFEA3
:103C10000A2117F0CDFA43463031CEB258460A2178
:103C20001E7117F0C5FA8346002801D100F05EFE30
:103C30000A2117F0BDFA43463031CEB258460A2168
:103C40005E7117F0B5FA8346002801D100F046FEF8
:103C50000A2117F0ADFA43463031CEB258460A2158
:103C60009E7117F0A5FA8346002801D100F008FFE5
:103C70000A2117F09DFA43463031CEB258460A2148
:103C8000DE7117F095FA8346002801D100F0F0FEAE
:103C90000A2117F08DFA43463031CEB258460A2138
:103CA0001E7217F085FA002801D100F055FE4B4630
:103CB0003030C6B2002B01D000F03BFC0A23424654
:103CC0005146E6554646D218023A1278F81C62541C
:103CD000DA1EB65CE1198E70002A01D100F0DFFD1A
:103CE00041461A1F895C3E1D2154002A01D100F073
:103CF000D3FD40465A1F805C791DA055002A01D192
:103D000000F047FE40469A1F805CBE1D6054002AAA
:103D100001D100F03BFE4146DA1F895CF81DA15538
:103D2000002A01D100F026FE46463900013AB65C71
:103D300008312654002A01D100F019FE4246093B01
:103D4000D25C09376254002B01D100F00DFE4346CE
:103D50001B78E3550A230021009AA218D15402E0EF
:103D600030230C4C238020001EF0FCF921000200BF
:103D700000201BF0B9FA0222074900201BF0B4FA18
:103D8000FCF7ECFD01232B70FFF7DFFB005E021058
:103D9000185F02100C1F0020FC5D02103023F54C50
:103DA000238020001EF0DEF92100020000201BF01D
:103DB0009BFA0222F04900201BF096FA00201BF02B
:103DC00055FAFFF7C0FB0122EC4900201BF08CFAEA
:103DD00029220020EA491BF087FA009B1C68002C6E
:103DE000BED001DA00F041FC20000A2117F0E0F912
:103DF0003031CBB212AF20000A213B709B4617F046
:103E0000D7F9041E009001D100F0A9FE0A2117F095
:103E1000CFF93031CAB220000A217A70914617F0EA
:103E2000C7F90023061E984601D100F0B7FE0A210B
:103E3000300017F0BDF93031CBB230000A21BB7031
:103E4000994617F0B5F9041E01D100F09BFE0A2136
:103E500017F0AEF93031CEB220000A21FE7017F013
:103E6000A7F9041E01D100F0E8FF0A2117F0A0F91C
:103E70003031CEB220000A213E7117F099F9041EAC
:103E800001D100F0CEFF0A2117F092F93031CEB205
:103E900020000A217E7117F08BF9041E01D100F079
:103EA0009DFF0A2117F084F93031CEB220000A219B
:103EB000BE7117F07DF9041E01D100F083FF0A21C5
:103EC00017F076F93031CEB220000A21FE7117F0DA
:103ED0006FF9041E01D100F0C9FF0A2117F068F93B
:103EE0003031CEB220000A213E7217F061F900286D
:103EF00001D100F0B0FF0300424630339D4CDBB2ED
:103F0000002A01D000F0C9FF237001230026994642
:103F100009334946FA18023A1278A0196254F11C82
:103F2000DA1E8A46B95C8170002A01D100F061FF77
:103F30005046311D1A1F0191B95C2154002A01D14C
:103F400000F09FFF711D5A1F8A46B95C301D215435
:103F5000002A01D100F07CFF5046B11D9A1F01914B
:103F6000B95C2154002A01D100F0FEFEF11DDA1FD8
:103F70008A46B95CB01D2154002A01D100F0F1FE3F
:103F8000023001905046013AB95C2154002A01D117
:103F900000F005FF3200093BF95C01980932215419
:103FA000002B01D100F0F8FE3B78A3540A23002136
:103FB000A219D1545A4616AB9A461A70009B0A3180
:103FC00018009B46019617F0F3F853463031CFB2F4
:103FD00058460A215F7017F0EBF88346002801D19C
:103FE00000F0CDFE58460A2117F0E2F85346303172
:103FF000CFB258460A219F7017F0DAF8834600289E
:1040000001D100F0B4FE0A2117F0D2F85346303146
:10401000CFB258460A21DF7017F0CAF8834600284D
:1040200001D100F0C7FE0A2117F0C2F85346303123
:10403000CFB258460A211F7117F0BAF883460028FC
:1040400001D100F0AFFE0A2117F0B2F8534630312B
:10405000CFB258460A215F7117F0AAF883460028AC
:1040600001D100F076FE0A2117F0A2F85346303154
:10407000CFB258460A219F7117F09AF8834600285C
:1040800001D100F05EFE0A2117F092F8534630315C
:10409000CFB258460A21DF7117F08AF8834600280C
:1040A00001D100F01CFD0A2117F082F8534630318F
:1040B000CFB258460A211F7217F07AF8002801D1B2
:1040C00000F005FD43463030C7B2002B00D05FE260
:1040D0000A2352464946A7555746D218023A127843
:1040E000F01C6254DA1EBF5CA1198F70002A01D146
:1040F00000F024FE57461A1FBF5C311D2754002ACA
:1041000001D100F018FE57465A1FBF5C701D67545E
:10411000002A01D100F00CFE57469A1FBF5CB11D6A
:104120002754002A01D100F000FE5746DA1FBF5C79
:10413000F01D6754002A01D100F0F4FD5746013A02
:10414000BF5C02312754002A01D100F0E8FD52463D
:10415000093BD25C09366254002B01D100F04CFEC1
:1041600053461B78A3550A230021019AA218D15463
:10417000F9E5C0460C1F0020FC5D0210005E021035
:10418000385F02100122F3491BF0AEF83222002002
:10419000F1491BF0A9F8009B1C68002C00D1DFE559
:1041A00000DA9FE20A21200017F002F83031CBB28A
:1041B0009A46524602AB0A2120001A70984616F021
:1041C000F7FF8146002801D100F001FD0A2116F019
:1041D000EFFF43463031597048460A2116F0E8FF98
:1041E0008346002801D100F006FD00270A21584629
:1041F00016F0DEFF43463031CEB258460A219E709B
:1042000016F0D6FF041E01D100F0E9FC0A2116F0D9
:10421000CFFF43463031CEB220000A21DE7016F0C7
:10422000C7FF041E01D100F05FFD0A2116F0C0FF98
:1042300043463031CEB220000A211E7116F0B8FF7D
:10424000041E01D100F044FD0A2116F0B1FF4346DF
:104250003031CEB220000A215E7116F0A9FF041E93
:1042600001D100F0D9FC0A2116F0A2FF43463031FB
:10427000CEB220000A219E7116F09AFF041E01D1D1
:1042800000F0BEFC0A2116F093FF43463031CEB257
:1042900020000A21DE7116F08BFF041E01D100F010
:1042A0002BFE0A2116F084FF43463031CEB22000A7
:1042B0000A211E7216F07CFF002801D100F011FEC9
:1042C00003003033A54CDBB2002F01D100F02CFEEF
:1042D0002D2263700A23227000972B3A41464646EE
:1042E000C91802390978F81CA154DA1EB65CE11924
:1042F0008E70002A01D100F003FD46461A1FB65CFD
:10430000391D2654002A01D100F000FD46465A1FEF
:10431000B65C781D6654002A01D100F0F4FC4646D4
:104320009A1FB65CB91D2654002A01D100F0CBFCBF
:104330004646DA1FB65CF81D6654002A01D100F02B
:1043400017FE4646013AB65C02312654002A01D1D6
:1043500000F059FE40463A00093BC05C0932605407
:10436000002B01D100F04CFE43461B78A3540A23D6
:104370000022DB19E254534606AF48463B700A213F
:1043800016F016FF3031CBB248460A217B709846B2
:1043900016F00EFF8146002801D100F08AFC484645
:1043A0000A2116F005FF3031CBB248460A21BB7016
:1043B000984616F0FDFE8146002801D100F06FFC02
:1043C0000A2116F0F5FE3031CBB248460A21FB70C7
:1043D000984616F0EDFE8146002801D100F055FC0C
:1043E0000A2116F0E5FE3031CBB248460A213B7176
:1043F000984616F0DDFE8146002801D100F03BFC16
:104400000A2116F0D5FE3031CBB248460A217B7125
:10441000984616F0CDFE8146002801D100F022FC1E
:104420000A2116F0C5FE3031CBB248460A21BB71D5
:10443000984616F0BDFE8146002801D100F009FC27
:104440000A2116F0B5FE3031CBB248460A21FB7185
:10445000984616F0ADFE8146002801D100F0B7FD68
:104460000A2116F0A5FE3031CBB248460A213B7234
:10447000984616F09DFE002801D100F09FFD030034
:10448000009A3033DBB2002A01D000F090FD237097
:104490000A230132F918023900980978A154C11C85
:1044A000DA1E8C462118B85C8870002A00D1CEE351
:1044B000664600981A1F011DB85CA055002A00D15D
:1044C000C3E35A1F0098BE5C05306654002A00D131
:1044D000B9E39A1F0099BE5C06312654002A00D128
:1044E000AFE3DA1F0098BE5C07306654002A01D1A2
:1044F00000F05AFD013A0099BE5C08312654002AAA
:1045000001D100F032FD093B009AF85C0932605499
:10451000002B01D100F026FD3B78A3540A23009A1A
:10452000944600226344E2541DE42D232370FFF7D8
:10453000B2F92D232370FFF7C1FB4B46074C002B2C
:1045400000D075E301339A46277006330027FFF742
:10455000C1F8C046005E0210E45E02100C1F00208D
:104560004B46E64C002B01D000F052FC01339A463A
:10457000277005330027FFF7C1FA5346DF4C23703D
:1045800001239A4652463378A3540223FFF704FBD3
:104590002D2323709CE5644220000A2116F008FEBA
:1045A0003031CBB21AAE20000A2133709B4616F090
:1045B000FFFD041E019000D180E10A2116F0F8FDF4
:1045C0003031CAB220000A217270924616F0F0FD16
:1045D0000123071E994601D0FFF70AF8C74C2C3378
:1045E00023705346637002239A460137524633784C
:1045F000A3540222FFF7BDF8644220000A2116F0FE
:10460000D7FD3031CBB20AAE20000A2133709B4671
:1046100016F0CEFD041E019000D1F1E10A2116F042
:10462000C7FD3031CAB220000A217270924616F0DE
:10463000BFFD0123071E994601D0FFF7EDF9AF4CEE
:104640002C33237053466370022301379A4699E74F
:104650004B46002B01D02D232370434652461B7836
:10466000E655A3540223FFF762F9644220000A21B1
:1046700016F09EFD3031CBB212AF20000A213B7004
:104680009B4616F095FD041E009000D12FE20A21F2
:1046900016F08EFD3031CAB220000A217A709146A0
:1046A00016F086FD0123061E984601D0FFF7BFFBDA
:1046B000924C2C3323704B4663700223994601368B
:1046C0004A463B78A354022371E44B468B4C002BA3
:1046D00000D0E0E153462370012300279A460233BD
:1046E000FFF70CFA64420A21200016F061FD303118
:1046F000CBB29A46524602AB0A2120001A70984665
:1047000016F056FD8146002800D11EE20A2116F05F
:104710004FFD43463031CEB25E700A21484616F056
:1047200047FD01278346031E00D05FE50122934623
:10473000724C023366700092424612785F46E25431
:10474000022315E61A00FFF714F84B46002B01D0A0
:104750002D2323700323FFF7B2FA4B46002B01D021
:104760002D232370434652461B78E655A35402235B
:10477000FFF7F1FA0323FFF7DAF84B465F4C002B03
:1047800000D054E101339A46277003330027FEF727
:10479000A1FF4B46594C002B00D03EE153462370FD
:1047A000012300279A460233FEF794FF4B46002B65
:1047B00001D02D2323700423FFF76EF84B46002B06
:1047C00001D02D2323700323FFF766F80423FFF79E
:1047D000AEF84B46494C002B00D031E101339A46EC
:1047E000277004330027FEF775FF5346434C2370B0
:1047F00001239A46FAE64B46404C002B00D0A2E03B
:1048000001339A46277003330027FFF777F9062311
:10481000FFF78DF80622FEF7ACFF0522FEF7A9FF91
:104820000422FEF7A6FF4B46002B01D02D23237058
:104830000723FFF731F84B46002B01D02D232370BF
:104840000623FFF729F84B46002B01D02D232370B8
:104850000523FFF721F80523FFF769F82300274C0C
:1048600063705B462370002300930133FFF75FF80A
:104870004B46224C002B00D07BE101339A46277037
:1048800005330027FEF726FF4B46002B01D02D23D2
:1048900023700423FFF713FA0423FFF75CFA0323C2
:1048A000FFF759FA4B46154C002B00D0A7E2013315
:1048B0009A46277004330027FFF720F92D230F4C69
:1048C00023705B4663700123A0700093FFF72FF8FD
:1048D0000423FFF761F90323FFF75EF94B46002B32
:1048E00001D02D2323700623FFF7E9F94B46002B57
:1048F00001D02D2323700523FFF7E1F90C1F0020C1
:104900000923FFF714F84B46002B01D02D23237009
:104910000923FEF7C1FF4B46002B01D02D23237046
:104920000823FEF7B9FF2300E84C63705B46237051
:10493000002300930133FFF70EFA0922FEF719FF57
:104940000822FEF716FF2D2323702B3B9A46677033
:1049500002334F46FFF7D2F84B46002B01D02D23F0
:1049600023700923FFF7ABF90923FFF7F4F90823B4
:10497000FFF7F1F90723FFF7EEF90823FFF70CF92A
:104980000723FFF709F90923FFF706F90623FFF7C5
:10499000E2F90523FFF7DFF90623FFF7FDF805230A
:1049A000FFF7FAF84B46C94C002B7ED101339A46EB
:1049B000277008330027FFF7A1F84B46C34C002BA4
:1049C0007CD101339A46277007330027FFF796F80A
:1049D0004B46BE4C002B00D0A5E001339A46277011
:1049E00006330027FFF78AF84B46B84C002B00D05F
:1049F00087E001339A46277008330027FEF76AFEE6
:104A00002D23B24C23705B4663700123A07000938A
:104A1000FFF7A1F90722FEF7ACFE2D2323705346C2
:104A2000637002234F469A460133FEF753FE2D234F
:104A300023702B3B9A46677002334F46FEF74AFEBF
:104A40002D2323702B3B9A46677003334F46FEF7A6
:104A500041FE4B469D4C002B00D0AFE001339A46FF
:104A6000277007330027FEF735FE0823FEF75FFFA8
:104A70004B46002B01D02D2323700823FFF71FF98D
:104A80004B46002B01D02D2323700723FFF717F986
:104A90000723FEF74CFF2D23237053466370022338
:104AA0004F469A460133FFF729F82D2323702B3BFD
:104AB0009A46677007334F46FFF720F82D2323707F
:104AC0002B3B9A46677006334F46FFF717F843466D
:104AD000002B01D02D2323700923FFF7FAFA434658
:104AE000002B01D02D2323700823FFF7F2FA2D238A
:104AF000764C23705B4663700123A0700193FFF72F
:104B000033FB2D2323702B3B9A46677007334F46A8
:104B1000FEF7E0FD2D22637002234F469A46227075
:104B20000833FEF7EBFF2D2323702B3B9A4667706B
:104B300005334F46FEF7E2FF2D22637002234F46F6
:104B40009A4622700833FEF7C5FD2D235F4C0122E3
:104B500023705346A070637000920123DFE42300AA
:104B60005A4C63705B462370002301930133FFF7B7
:104B7000FBFA2D2323702B3B9A46677004334F4674
:104B8000FEF7A8FD4346514C002B0DD14B46237038
:104B90000123002699460233FFF7BBF94B464B4CE5
:104BA0002370012399468BE52D2323704B466370B8
:104BB0000223464699460133FFF7ABF92D232370B4
:104BC0002B3B9A46677006334F46FEF783FD5346EC
:104BD0003E4C237000236070009301339FE43B4CF4
:104BE000002F00D122E22D2302222370667000974D
:104BF0002A3BFFF773FB0023344C009301339BE502
:104C0000324C002F00D118E22D230222237066704F
:104C10000097263BFFF762FB2C4C002F00D1B3E13D
:104C20002D230222237066700097273BFFF756FB67
:104C30002D2323702B3B9A46677005334F46FEF7B2
:104C400049FD06236BE4052369E4042367E4032399
:104C500065E4009B002B00D0F6E14346012223705F
:104C6000072317E4009B002B00D06BE14346012291
:104C7000237006230EE4009B002B00D06AE143461C
:104C8000012223700523FFF705FC009B002B00D0B9
:104C9000BCE14346012223700423FFF7FBFB009B8A
:104CA000002B00D0BAE14346012223700323FFF713
:104CB000F1FB009B002B2CD14346237001233A7853
:104CC000E25402232BE40623FFF752FB0C1F0020C3
:104CD000E54C002F00D1BFE12D2302222370667026
:104CE0000097283BFFF7FAFADF4C002F00D122E1B2
:104CF0002D230222237066700097293BFFF7EEFAFE
:104D00000323FFF735FB0523FFF732FB0423FFF7EF
:104D10002FFB2D232370434663700223CFE7082324
:104D2000FFF722FA0723FFF71FFA0623FFF71CFA03
:104D30000523FFF719FA0423FFF716FA0323FFF7F9
:104D400013FA4346002B01D02D2323700723FFF7CE
:104D5000C0F94346002B01D02D2323700623FFF713
:104D6000B8F90723FFF723F90623FFF720F9434695
:104D7000002B01D02D2323700323FFF7AAF943460C
:104D8000002B01D02D23237053464A461B78A7558C
:104D9000A3540223FFF7E8F90923FFF708F90823D2
:104DA000FFF705F94346002B01D02D23237005237F
:104DB000FFF78FF94346002B01D02D2323700423E6
:104DC000FFF787F94346A84C002B00D0D3E001330E
:104DD0009946267006330026FFF79BF84346A24CFF
:104DE000002B63D101339946267005330026FFF767
:104DF00090F80323FFF7DBF80923FFF7B5F92D231C
:104E000023702B3B9A46677003334F46FEF776FEBE
:104E10002D2323702B3B9A46677004334F46FEF7D1
:104E20006DFE4346904C002B00D0B4E00133994610
:104E3000267004330026FFF76CF843468A4C002B9B
:104E400022D101339946267003330026FFF761F81B
:104E50000523FFF7ACF84346834C002B2FD10133D9
:104E60009946267008330026FFF753F843467E4CD8
:104E7000002B2DD101339946267007330026FFF70A
:104E800048F80423FFF793F82D2323702B3B994612
:104E9000667002334646FFF73CF82D22637002230A
:104EA0004646994622700833FFF733F82D232370C6
:104EB0002B3B9946667004334646FFF72AF82D23AC
:104EC00023702B3B9946667007334646FFF721F85F
:104ED0002D2323702B3B9946667006334646FFF719
:104EE00018F8614C002F12D02D2302222370667017
:104EF0000097243BFFF7F2F95B4C002F0DD02D23D8
:104F00000222237066700097253BFFF7E7F9012224
:104F1000092326700097FFF7E1F90023012200938F
:104F200026700833FFF7DAF923700023012200937B
:104F30000A33FFF7D3F900230122009326700433CC
:104F4000FFF7CCF92D23237043460222637006231A
:104F5000FFF7A0FA2D232370434602226370052336
:104F6000FFF798FA0923FFF7DAFA0823FFF7D7FAD1
:104F70000723FFF7FDF92D2323702B3B994666701D
:104F800005334646FEF7C5FF002301220093267035
:104F90000633FFF7A3F92D2323702B3B9946667048
:104FA00003334646FEF7B5FF0723FFF7B8FA2D2275
:104FB000637022700A232B3AFFF76CFA009B002BD8
:104FC0000ED14346012223700923FFF763FA009BA9
:104FD000002B0DD14346012223700823FFF75AFA14
:104FE0002D2323704346022263700923FFF752FAF0
:104FF0002D2323704346022263700823FFF74AFAE9
:105000000923FFF7B5F90823FFF7B2F92D23237021
:105010004346022263700423FFF73CFA2D232370DA
:105020004346022263700323FFF734FA0023012270
:10503000009326700333FFF751F9002301220093F8
:1050400026700733FFF74AF92D23237043460222C7
:1050500063700723FFF71EFA0023012200932670D6
:105060000533FFF73BF9C0460C1F0020F0B5DE46C4
:1050700057464E464546E0B50400B7B0C82801D1B2
:1050800000F008FF01DD00F050FE632801D100F0C0
:10509000C8FE01DD00F0BBFE042801D100F066FE71
:1050A000052801D000F0E5FEBA4B1B78002B01D09B
:1050B00000F055FEB84F5A2138001CF011FDB74ED4
:1050C0003060002801D100F047FF002101301CF0C2
:1050D0004BFB00900191432138001CF001FD051E9F
:1050E000306001D101F09AFD0098019916F0EAFBB9
:1050F00017F014F800218046681C1CF035FB16F0F0
:10510000E1FB17F00BF850210090050038001CF06F
:10511000E7FC3060002801D100F050FF0021013091
:105120001CF022FB16F0CEFB16F0F8FF00229C4B81
:1051300001001A6042469B4B96000290F0580C23E7
:105140005B426B440AB20368E9B29B689847964E8B
:105150003060002801D101F06AFD0122934900204E
:105160001AF0C2F81222002091491AF0BDF83668F0
:10517000002E01D101F072FD01DA01F0ABFD0A2130
:10518000300016F015F83031CBB206AF0A213000EE
:105190003B70039316F00CF88046002801D101F013
:1051A000A1FE0A2116F004F83031797040460A2138
:1051B00015F0FEFF8146002801D101F071FF0026A5
:1051C0000A21484615F0F4FF3031CBB248460A2197
:1051D000BB709A4615F0ECFF8346002801D101F020
:1051E000EDFE0A2115F0E4FF3031CBB258460A211A
:1051F000FB70994615F0DCFF8246002801D101F0D2
:10520000FBFE0A2115F0D4FF3031CBB250460A2103
:105210003B71994615F0CCFF8246002801D101F080
:1052200044FF0A2115F0C4FF3031CBB250460A21A9
:105230007B71994615F0BCFF8246002801D101F030
:1052400055FF0A2115F0B4FF3031CBB250460A2188
:10525000BB71994615F0ACFF8246002801D101F0E0
:1052600034FF0A2115F0A4FF3031CBB250460A2199
:10527000FB71994615F09CFF8246002801D102F08F
:1052800041FA0A2115F094FF3031CBB250460A2181
:105290003B72994615F08CFF002801D102F022FAEA
:1052A0000300444A30339346DBB2002E01D102F0B2
:1052B0009FFD59462D224B700A70330002210A22AD
:1052C0005D46B818023800786854D81CD11E814653
:1052D000E8187D5C8570002901D101F080FE111F66
:1052E0007D5C181DAC468A465D4661460490484682
:1052F00029545146002901D101F028FF511F581DA2
:105300008146785C8A46844658466546191D455450
:105310005146002901D101F016FF911F981D8A46C0
:1053200084465D46785C494668545146002901D15F
:1053300001F006FFD11FD81D8A468146785C614680
:1053400068545146002901D102F01CFA01397D5CF4
:105350001800AC4608308A465D46614604904846CF
:1053600029545046002801D102F012FA093AB85CDB
:1053700019008446584665460931894604994554C2
:10538000002A01D102F001FA49463A7842540A2231
:1053900012E0C046683200200C1D0020FC1C0020DA
:1053A000602D00208831002054320020005E021061
:1053B000C85F02100C1F0020D218594600238B54DE
:1053C000039B0AAF40463B700A2115F0F1FE3031D5
:1053D000CBB240460A217B70994615F0E9FE804623
:1053E000002801D101F0CEFD40460A2115F0E0FE73
:1053F0003031CBB240460A21BB70994615F0D8FE39
:105400008046002801D101F0B2FD0A2115F0D0FE3E
:105410003031CBB240460A21FB70994615F0C8FEE8
:105420008046002801D101F0FAFD0A2115F0C0FEE6
:105430003031CBB240460A213B71994615F0B8FE97
:105440008046002801D101F09AFE0A2115F0B0FE35
:105450003031CBB240460A217B71994615F0A8FE47
:105460008046002801D101F07FFE0A2115F0A0FE40
:105470003031CBB240460A21BB71994615F098FEF7
:105480008046002801D101F064FE0A2115F090FE4B
:105490003031CBB240460A21FB71994615F088FEA7
:1054A0008046002801D102F04FF90A2115F080FE54
:1054B0003031CBB240460A213B72994615F078FE56
:1054C000002801D102F036F903003033DBB2002EA0
:1054D00001D002F0A4FC5A46137001220A23584658
:1054E000F9180239097881545946DA1EBD5C8919C8
:1054F000F01C8D70002A01D101F08EFD1A1FBD5CD9
:10550000311DAC4688465D4661462954002A01D1CA
:1055100001F045FF711D5A1F8946B95C40468C4613
:10552000594665460D54002A01D101F035FF9A1FF6
:10553000BD5CB11DAC4688465D466146484629546F
:10554000002A01D101F023FFF11D8C464546594642
:10555000DA1FB85C4855002A01D102F0A8F83100E2
:10556000083188465D466146013AB85C6854002AB5
:1055700001D102F05BF8320059464546093BF85C20
:1055800009324855002B01D102F04DF83B788B547D
:105590000A23002259469B19CA5458461CF0E2FDC2
:1055A00059460200002019F09FFEBF4B012219004E
:1055B0000020039319F098FE009B002B01D101F00D
:1055C00054FB01DA01F056FB18000A211D0015F00A
:1055D000EFFD3031CBB20EAF0A2128003B700493AF
:1055E00015F0E6FD8146002801D101F031FE0A21C7
:1055F00015F0DEFD3031CDB248460A217D7015F040
:10560000D7FD0023061E984601D101F01CFE300094
:105610000A2115F0CDFD3031CDB230000A21BD7028
:1056200015F0C6FD061E01D101F07CFC0A2115F023
:10563000BFFD3031CDB230000A21FD7015F0B8FD4C
:10564000061E01D101F0F5FC0A2115F0B1FD303143
:10565000CDB230000A213D7115F0AAFD061E01D120
:1056600001F001FE0A2115F0A3FD3031CDB230006A
:105670000A217D7115F09CFD061E01D101F0C9FDC6
:105680000A2115F095FD3031CDB230000A21BD71EF
:1056900015F08EFD061E01D101F0AEFD0A2115F0B8
:1056A00087FD3031CDB230000A21FD7115F080FD4B
:1056B000061E01D101F019FF0A2115F079FD3031E4
:1056C000CDB230000A213D7215F072FD002801D1E3
:1056D00002F07EF8030042463033DBB2002A01D0EC
:1056E00002F0DFFB5A461370012300269A46093365
:1056F00059465046FA18023A12780A545846DA1EA9
:10570000BD5C8019F11C8570002A01D101F09DFC5F
:10571000301D844658461A1FBD5C4554002A01D1ED
:1057200001F044FD6546711D5A1F0091B95C415559
:10573000002A01D101F037FDB11D8C4659469A1F50
:10574000B85C751D4855002A01D101F029FDF11DF5
:10575000604600915946DA1FBD5C0D54002A01D104
:1057600002F058F8310008318C465946013ABD5CC8
:10577000F01D0D54002A01D102F049F832006546AF
:10578000093BF85C09324855002B01D101F0AAFE13
:105790003B788B540A225B4600219B199954049B49
:1057A00012AF48463B700A31009615F001FD3031CA
:1057B000CDB248460A217D7015F0FAFC81460028DA
:1057C00001D101F0ECFB48460A2115F0F1FC303123
:1057D000CDB248460A21BD7015F0EAFC814600288A
:1057E00001D101F0ACFB0A2115F0E2FC3031CDB261
:1057F00048460A21FD7015F0DBFC8146002801D1E6
:1058000001F026FC0A2115F0D3FC3031CDB2484618
:105810000A213D7115F0CCFC8146002801D101F030
:10582000DAFC0A2115F0C4FC3031CDB248460A2119
:105830007D7115F0BDFC8146002801D101F0C2FC4C
:105840000A2115F0B5FC3031CDB248460A21BD71B0
:1058500015F0AEFC8146002801D101F0AAFC0A2116
:1058600015F0A6FC3031CDB248460A21FD7115F085
:105870009FFC8146002801D101F0C0FF0A2115F0EC
:1058800097FC3031CDB248460A213D7215F090FCAC
:10589000002801D101F0B8FE43463030C5B2002BDC
:1058A00000D069E302E0C0468C5F02100A235A462A
:1058B000594650469555FA18023A12780A54DA1E9B
:1058C000BD5C8919F01C8D70002A01D101F0E5FB47
:1058D000311D8C4659461A1FBD5C0D54002A01D15A
:1058E00001F081FD711D8846604659465A1FBD5C16
:1058F0000D54002A01D101F06AFDB11D8C464046CD
:1059000059469A1FBD5C0D54002A01D101F05CFD7F
:10591000F11D884660465946DA1FBD5C0D54002AC9
:1059200001D101F0C1FE310008318C464046594694
:10593000013ABD5C0D54002A01D101F0B2FE60466F
:10594000093BFA5C09360A54002B01D102F039F800
:105950003B788B550A230021009A5A44D15458466B
:105960001CF000FC59460200002019F0BDFC012289
:105970000020039919F0B8FC029B002B01D101F023
:105980005FF901DA01F0D7F918000A211D0015F0BE
:105990000FFC3031CBB216AF0A2128003B700293C6
:1059A00015F006FC8246002801D101F0FBFC0A211B
:1059B00015F0FEFB3031CBB27B700A215046994680
:1059C00015F0F6FB0023061E984601D101F045FCB8
:1059D00030000A2115F0ECFB3031CBB230000A2147
:1059E000BB70994615F0E4FB061E01D101F083FA65
:1059F0000A2115F0DDFB3031CBB230000A21FB70FB
:105A0000994615F0D5FB061E01D101F02AFB0A21AB
:105A100015F0CEFB3031CBB230000A213B719946F4
:105A200015F0C6FB061E01D101F08BFC0A2115F012
:105A3000BFFB3031CBB230000A217B71994615F0A3
:105A4000B7FB061E01D101F0E2FC0A2115F0B0FB04
:105A50003031CBB230000A21BB71994615F0A8FB5A
:105A6000061E01D101F0C5FC0A2115F0A1FB303161
:105A7000CBB230000A21FB71994615F099FB061E46
:105A800001D101F0F1FC0A2115F092FB3031CBB2CB
:105A900030000A213B72994615F08AFB002801D19B
:105AA00001F0D4FC030042463033DBB2002A01D0BF
:105AB00002F00EF95A461370012300269946093365
:105AC00059464846FA18023A12780A545846DA1EDD
:105AD000BD5C8019F11C8570002A01D101F0D7FA54
