:020000041000EA
:1000000000B5324B212058609868022188439860DF
:10001000D860186158612E4B002199600221596106
:100020000121F02299502B49196001219960352056
:1000300000F044F80222904214D00621196600F024
:1000400034F8196E01211966002018661A6600F04E
:100050002CF8196E196E196E052000F02FF8012189
:100060000842F9D1002199601B49196000215960AB
:100070001A491B48016001219960EB211966A021F2
:10008000196600F012F800219960164914480160C1
:100090000121996001BC002800D000471248134993
:1000A000086003C880F30888084703B5996A0420EC
:1000B0000142FBD001200142F8D103BD02B5186610
:1000C0001866FFF7F2FF186E186E02BD00000240BE
:1000D000000000180000070000035F00212200005C
:1000E000F4000018222000A00001001008ED00E03C
:1000F00000000000000000000000000074B24E7A12
:1001000000200420F7010010CB010010CD010010E9
:10011000C9010010C9010010C9010010C901001077
:10012000C9010010C9010010C9010010CF01001061
:10013000C9010010C9010010D1010010D301001045
:10014000C1010010C1010010C1010010C101001067
:10015000C1010010C1010010C1010010C101001057
:10016000C1010010C1010010C1010010C101001047
:10017000C1010010C1010010C1010010C101001037
:10018000C1010010C1010010C1010010C101001027
:10019000C1010010C1010010C1010010C101001017
:1001A000C1010010C1010010C1010010C101001007
:1001B000C1010010C1010010C1010010C1010010F7
:1001C000EFF30580103800BE00BE00BE00BE00BECA
:1001D00000BE00BEF2EB8871BC3C0010EC3C00108D
:1001E0003802001090A31AE71E481F49086006C88D
:1001F00081F3088810471D480068002801D019487D
:10020000F3E70DA40ECC002902D000F012F8F9E7B4
:100210001749184A002000E001C19142FCD116495B
:100220008847164988471649884700BEFDE701C937
:1002300001C29A42FBD37047EC3C0010C000002082
:10024000C8150020F4510010000004200000042014
:10025000F4510010001004200010042000000000E1
:10026000704700000000000008ED00E0000000D032
:10027000C8150020D02C0020B11B0010D5020010A2
:10028000A91B0010F8B5C04606480749091A8B108B
:10029000C90FC91810B5491003D0044B002B00D06A
:1002A000984710BDC8150020C815002000000000A8
:1002B000054B10B5002B03D00449054800E000BFF2
:1002C000FFF7E2FF10BDC04600000000882C0020B0
:1002D0009C3A001010B500F003F800F01FF8FCE79E
:1002E00000B583B001F070FD01236A4601A900202A
:1002F000938002F027F803B000BDC0460022054BF2
:1003000010B51A60803200215200034801F00AFC47
:10031000FFDEC046681A00206C1A002010B5FFF7F7
:10032000EDFFC04610B50249024800F06FF810BD5D
:10033000303B0010742C0020F8B50500002A0DD0C9
:100340000C0000268F182B68217828001B6898471E
:1003500001343618BC42F6D13000F8BD0026FBE768
:100360008E238F225B005200C35A805A181A431EF4
:10037000984170478E235B00C15A0233C25A9142A2
:1003800003D0C35AC018007F704701204042FBE7EA
:100390008E22030010B55200805A0232995A8842C8
:1003A00008D0995A9C5A5918087FFF2101342140DE
:1003B000995210BD01204042FBE7C0460822016966
:1003C0008B691A42FCD17047026920209369184258
:1003D000FCD1012011607047FA21094B8900996016
:1003E00008490022196008495A60196104215961BD
:1003F000013199611831FF315A5202315A52704716
:1004000048190020E03B001000800340F8B50025AB
:1004100004000E1E05604560856005730FD008005E
:1004200003F04CF90700013001F05CFB002806D016
:100430003100206067600570A76003F037F9200085
:10044000F8BDC046094A83009A1810B514684022C6
:10045000544080322240064CC000A44663441A60D7
:10046000044B9C466044416010BDC04604C001403E
:1004700004D00140004001408023DB051868000FD4
:100480007047C0460FB400B5084883B001F0ECFCDB
:10049000049B002B07D005A91800019101F050FB27
:1004A000034801F0E1FC012001F062FB9C3A0010DE
:1004B000AC3A001070B5EFF3108C72B60D4D2B688E
:1004C000002BFCD0BFF35F8F0724CB08C618C05C9D
:1004D00001230C40A3401C000440034207D11843F1
:1004E0003070BFF35F8F2C608CF3108870BD1000EC
:1004F000FFF7C8FF2C0100D0F8B54746CE46884626
:1005000080B5EFF3108C72B61C4D2C68002CFCD01B
:10051000BFF35F8F9A4222D807210126894602E065
:100520000132934218D34D4637001540AF40D408EE
:100530000119045D2742F3D110003C430C70BFF356
:100540005F8F00220D4B1A608CF3108800280EDBA1
:10055000C0BCB946B046F8BD01204042EFE7BFF34A
:100560005F8F00232B608CF31088012040424346AC
:10057000002BEDD00898FFF785FFC0462C0100D076
:10058000044A1078431CDBB2172B00D910231370D8
:100590007047C046A00F002010B5064B064C82B035
:1005A0000100009318221F232000FFF7A5FF02B0CF
:1005B00010BDC046B03A00102C2800200021044B8A
:1005C000044ABFF35F8F02C39342FAD17047C0461B
:1005D000000100D0800100D0054B064A1360064A96
:1005E000136053609360D3601361536193617047EC
:1005F0008080808000E400E004E400E01F231840D5
:100600001E3B8340002905D0C021044A49005350B5
:1006100013607047802201498B50FAE700E100E047
:1006200070B50D00EFF3108672B60F4A1368002BF9
:10063000FCD0BFF35F8F0D4B10309B6884001B59BB
:100640000B4A934203D09D4201D001F031F8074B91
:100650009B681D51BFF35F8FBFF35F8F0022024B7A
:100660001A6086F3108870BD240100D000ED00E010
:10067000C1010010F0B557464E46DE464546E0B58E
:1006800085B0060000911700EFF3108B72B66A4A2E
:100690001368002BFCD0BFF35F8F0025674B5D57BD
:1006A0009A46002D00DAA9E06B00654C01935B19B6
:1006B0009B009846A146C1444B4652469B79103652
:1006C0001370604BB6009B6899590B1B2F2B33D9C5
:1006D0005D4B994200D0ACE0019B42469C465B4B8F
:1006E0006544AD0063535A4B0232A218043B9B1A77
:1006F0001B05584A5B0D651913436B80564B01214E
:10070000AB80FF23AB71009BEF71AB604B460B439B
:1007100019004C4B9B689951BFF35F8FBFF35F8FFC
:100720000022454B1A608BF3108805B0F0BCBB4625
:10073000B246A946A046F0BD01200A008243D37903
:100740008C46BB4231D84546130044491B1B5B41D4
:100750005943090D3D4B63533D4B02356519043B2D
:100760005B1B1B053B4D5B0D2B43AA464D466B8027
:100770000425AC465546E044131F44441B1B1B058F
:100780005B0D1D434B46997100999D8099604946C8
:10079000DF71334B01431360BBE75800C018800082
:1007A0002018C179B9422FD902000623D356002B55
:1007B000F3DA02932B4B61460393131D9A460423ED
:1007C0005B429C46E14450464B461B1A1B055B0DA1
:1007D0009C46204B95719846634640460343938060
:1007E000019B5A199200039BA418A380029B1C4AE8
:1007F000A371009B2260E771A3608AE700F058FFB5
:10080000002553465D574FE7908802934005131D1E
:100810009A46031561469C464046D44463460430DC
:100820002018181AE0230005400D1B0218430390FE
:10083000C5E700F03DFF4FE7240100D0CC2C00209D
:10084000A40F002000ED00E0C101001000A1FFFF97
:10085000D40F002000E0FFFF01BDFFFFAAAA0000A7
:100860000148804701BD0000F0B5DE4657464E46C0
:100870004546E0B50C0083B0EFF3108872B6634ACA
:100880001368002BFCD0BFF35F8F614B61499A68FE
:10089000030010339F00D55901938D4243D0A542E8
:1008A00054D05D4EAA1B2F2A3DD85C4B9B461B683B
:1008B000994601231A009C4682404B4613401F2252
:1008C00099466346024093409A4680225B465046D2
:1008D0009850BFF35F8FEFF305839B46002B37D013
:1008E000019B5B4501D000F0E3FE01232A009A43FF
:1008F0009068844208D176E04B005B189B00F318A7
:100900009868844236D01A00062151560029F3DA3D
:10091000844254D04B46002B27D0C02251463F4B37
:100920005200995019603A4B9B68DD51BFF35F8FBD
:10093000BFF35F8F0022354B1A6088F3108803B035
:10094000F0BCBB46B246A946A046F0BD0D00EAE7A2
:100950002A0063469A4390688442D5D106201056F7
:10096000130000280ADA0D0031E0802351462B4A9B
:10097000D150D8E706201856002821DB4200111874
:10098000890074188B46A1689960E179D9710621B4
:1009900061569971002924DBA488F11A6405241595
:1009A0005C44091909051E4C490D2143998013180F
:1009B0001C4A9B001178F31899711070AAE7130074
:1009C0005946002914D1FF31917117499180154979
:1009D0000A789A71154A9B1B5B415A43120D0A70A3
:1009E00098E71149E2E70620105613000028C5DAFF
:1009F0000F4A1049D21A083A5002400D014399801B
:100A00000D4952080A43DA8084E7C046240100D029
:100A100000ED00E0C1010010A40F002000E100E0A3
:100A200000E0FFFFCC2C002001BDFFFFAAAA0000C0
:100A3000DE0F002000F0FFFF00F8FFFF70B501247B
:100A40000443EFF30581EFF3108C72B6214A13686B
:100A5000002BFCD0BFF35F8F1F4B05001F4AED1A20
:100A60006D416A43120D1E4D8900AE6852B2765830
:100A7000A6421CD00621595691421CD0122159562B
:100A8000914222D01E215956914220D02A215956F6
:100A90000324914210D0134B19781A708171BFF35F
:100AA0005F8F00220B4B1A608CF3108870BDAB680F
:100AB0000D4C5C50EFE700246100091989005B18B8
:100AC000FF21997109499980E5E70124F4E702249F
:100AD000F2E7C046240100D0A40F0020AAAA00001B
:100AE00000ED00E0CC2C0020C101001001BDFFFF93
:100AF000024B9C466144890001607047400000340D
:100B000070B5114C114DAC420FD2FF262368002B5B
:100B10000CD0FFF735FD01002000FFF7E9FFA680AC
:100B2000BFF35F8F0834AC42F0D370BDFFF728FDF0
:100B300001002000FFF7DCFF2671BFF35F8F083450
:100B4000AC42E3D3F1E7C046C0150020C815002031
:100B500010B50400FFF714FD01002000FFF7C8FFE7
:100B6000FF232371BFF35F8F10BDC04610B5040093
:100B70000120FFF711FD034BC3189B002360BFF357
:100B80005F8F10BD400000340A4B1968EFF31080EE
:100B900072B60A68002AFCD0BFF35F8F1B68BFF3F0
:100BA0005F8F00221A6080F3108840BF0020002170
:100BB0007047C046BC2C0020F0B5DE4657464E4676
:100BC0004546E0B587B0EFF30583032201251A40BF
:100BD000954091008846A946B34B03925C58B34BAD
:100BE0001D60B34B04934B46B24843630823E55E54
:100BF000002D37DAA3881BB2002B00DBADE0A37910
:100C0000002B00D0EEE00823E05E002820DB43004C
:100C100062691B18DB00D3189E68DD68731C00D165
:100C200011E1A44801004144826A0B69B71A9B1A7A
:100C30009F4215D30123026A039883401A420FD0C2
:100C40009C4800F0C9FA8D4202DCCCD18642CAD958
:100C500040BF07B0F0BCBB46B246A946A046F0BDB7
:100C60000E61EDE762696B0092465B19DB009A4406
:100C700053469E68DF6800F0AFFA8F42BADC00D1BD
:100C800003E1002F00DAE8E05246534652691B693F
:100C90009346049A934200D1D9E052460821605EFF
:100CA00052880004594610439847009001910099DA
:100CB000019A0B001000134300D1CEE013000A008C
:100CC000B61A9F41002806DB7A4800F085FA009E9C
:100CD000019F36184F4153469E60DF6000229A5EA6
:100CE000002A00DA86E7530099186069C9004118A4
:100CF00002938B68C9689B46B94200DD7AE702D14E
:100D0000B34200D976E708239C46A444059565467E
:100D10002281A446029B2C0006E053009918C900CA
:100D200041188D68C968AB469B18DB00C318B942EF
:100D300006DC00D1B3E01C000023E25E002AECDAFE
:100D4000230064469C4653461A806346059D1D80D9
:100D5000A3881BB2002B00DA51E72269EFF3108160
:100D600072B61368002BFCD0BFF35F8F0123A788F6
:100D70005B42A3803FB22369BFF35F8F00221A60FA
:100D800081F31088002F00DA39E7230008332200AE
:100D90009A4666697B00DB19DB00F31899685046B8
:100DA0008C460824115FDD68002910DB029306E001
:100DB000AB4244D00023E15E2000002906DB4C005A
:100DC0006418E4003419E368AB42F1DD029B07804C
:100DD00000201F5E1980002FDCDA1400A379002B9D
:100DE00000D110E70023A37126000823E15E083636
:100DF0004B1C00D12CE70800A246656902E03E00CA
:100E00004B1C1AD04B005B18DB00EF180A008C4615
:100E1000E95E7B881BB2002BF1DA01235B42DC1711
:100E2000BB60FC60824205D0534631801B893B8009
:100E300053461A8160464B1CE4D15446E5E6A3684C
:100E40006345B7D9C2E76B1C00D0EAE6F8E65B461B
:100E500058461B69984700281BD153461B882269B6
:100E60002381EFF3108372B611680029FCD0BFF321
:100E70005F8F514662880A8022696580BFF35F8F69
:100E80000021116083F31088B4E6864200D8F8E6AA
:100E9000B0E65B461A685B680092019307E7B345CA
:100EA00000D848E74CE7C046A02C00203C70054025
:100EB000B90B00100040054070B52E4C2569002D7F
:100EC00004D00A212C48FFF713FE70BD2B4E0321DE
:100ED000300000F077F9E660FFF752FB284B032261
:100EE0009C46D02322701B061B6801216370254B92
:100EF0006044A3600F238000206102206380636947
:100F00004942A18019800231198647311D83585208
:100F100018315A5275325C3999521832013199524E
:100F2000183201319952183201319952083518326C
:100F30009D520231183299521832013199521832A9
:100F400001319952183201319952183201319952B6
:100F50001832013199520C4B0C49DC60013035627A
:100F6000FFF75EFB01210320FFF748FB084B1D60E4
:100F7000A7E7C046EC0F0020BC2C00200040054035
:100F800040000034FFFF1000A02C0020B90B00101F
:100F90003860054070B501000469EFF3108C72B63B
:100FA00020680028FCD0BFF35F8F02200D5E4C69E3
:100FB00068004019C00024180869002D36DB268817
:100FC0004E80BFF35F8F002606608CF31088E360CD
:100FD00063880498013320615B0405985B0CA26070
:100FE00060611A1C002B1FD093B228046280184342
:100FF0000A69EFF3108C72B61368002BFCD0BFF3B4
:101000005F8F8B8823808D800B69BFF35F8F0022F9
:101010001A608CF310880B7801329A40CB6808492B
:101020008C4663441A6070BD0122DDE7BFF35F8F19
:10103000002303608CF3108801204042F3E7C04690
:101040003C20000010B543890A1493421ADD530076
:101050009B184269DB00D3180469EFF3108C72B659
:101060002268002AFCD0BFF35F8F5A88090494B22B
:10107000090C8A4208D00369BFF35F8F00221A600F
:101080008CF31088002010BD8022120214435C8073
:10109000012302698371BFF35F8F002111608CF31C
:1010A0001088044902788C469340C268012062444B
:1010B0001360E8E73C200000F0B557464E46DE4698
:1010C0004546E0B506000F0085B0EFF3058399466D
:1010D0008B46002B12D0384900204B6ABB4206D306
:1010E0008A6ADB1B591E8B41B2424041184305B04E
:1010F000F0BCBB46B246A946A046F0BD2F4B9A466F
:10110000DB68984653461B784046039300F064F82A
:101110004246039B040004339B009B580D001B1A9E
:1011200039003000001BA941894510DC0DD020BFDB
:10113000214A0020536A5B45D9D3926ADB1B591EB2
:101140008B41B24240411843D1E78342EFD900F0CE
:101150004BF832003B00121A8B41002B1ADB0023A4
:101160000193174B3200009350463B00FFF712FFEC
:10117000011E0FDD104B5A6A5A451BD39B6AB342BE
:1011800016D35046FFF75EFF0B4A0020536A5B45BB
:10119000ADD3D2E7084A0020536A5B45A7D30020AD
:1011A000926ADB1BB24240415A1E934118439EE7AC
:1011B0005A45E6D120BFE4E700400540EC0F00208F
:1011C000890B001010B5024A0248FFF773F910BDF1
:1011D000CC3A0010302800200300416A0A00986AC7
:1011E000596A8A42FAD17047034B596A0A00986AD1
:1011F000596A9142FAD170470040054070B5040029
:101200000D00174A536A1900966A536A8B42FAD145
:101210003000190024184D41AB4216D813D0104BA2
:101220002A005B6A9D4203D90D494B6A9342FCD365
:10123000934207D10A4A02E0516A994202D1916A67
:10124000A142F9D370BDA642E9D9054B5B6A1C00E7
:101250005A1CEFD0012201246442E5175242E3E711
:1012600000400540F8B5040006200D0000F078F9B4
:10127000002844D0374B3849E3185A1E9341802246
:10128000120494465B429B0D344A9B0563441360F1
:10129000334A136018000A689043FBD12D4B314A42
:1012A000E31859424B4180215B00490006209952C6
:1012B00000F056F92900C00000F024FB0130C309FA
:1012C0001ED1402701226262A362266BF30722D45B
:1012D000E36A254B0620E51800232B60266300F007
:1012E0003FF93900800000F00DFB7023E26A5A409C
:1012F0000E3313402B601D4B23630323A364F8BDFF
:101300001B4A93421ED900231A4A1B4F6262A362F2
:10131000266BF307DCD5194B144AE3181A60656A8B
:10132000A36A0620AD01ED1800F01AF9144900F087
:10133000E9FAAD020100280000F0E4FA0021FFF70D
:101340005DFFC5E74006800E9F011A003F180300AD
:10135000B9E7C0460080FCBF08C0004000E0004084
:1013600000F00040C02C00202C1000000103000001
:10137000FEFF0000FFFF0000C0FF3F003030000014
:101380004E0E0000F8B5DE464E4657464546E0B5DF
:101390008B4605000A991800160000F0B3FA0A9B64
:1013A0006C001F02324B64199C46A40064446368BD
:1013B00081469F4200D967602B1FDBB29846012B04
:1013C00030D9C02380229B01E31812011A60294BF7
:1013D000AD0059599A4600291BD17301E0262268B5
:1013E00053401E40802342465B01E3181E60012AE1
:1013F00030D9802380229B01E31812011A605346E2
:101400004A4667605A51F0BCBB46B246A946A04660
:10141000F8BD586900F076FA013043001B18033B11
:10142000FDD2DAE75B46012BCBD1C02303229B011F
:10143000E3181A60023AA3681A42FCD07301E0264E
:101440002268AD0053401E4080230A4A5B01924649
:10145000E3181E605A462168514003220A401A6070
:1014600001225B469A40A3681A42FCD0C1E7C046FD
:101470000080004034280020F0B546464F46D6464E
:10148000C0B51F00344B44009C462418A40064449B
:10149000636888461600FF2B02D880235B006360D8
:1014A000031FDBB29A46012B30D9C02380229B0157
:1014B000E31812011A60294B8500595999460029F1
:1014C0001BD17301E026226853401E408023524600
:1014D0005B01E3181E60012A30D9802380229B0122
:1014E000E31812011A6080235B0063604B465F5172
:1014F000E0BCBA46B146A846F0BD586900F002FA11
:10150000013043001B18033BFDD2DAE74346012BB1
:10151000CBD1C02303229B01E3181A60023AA368CF
:101520001A42FCD07301E0262268850053401E4019
:1015300080230A4A5B019146E3181E6042462168F7
:10154000514003220A401A60012342469340A26898
:101550001342FCD0C1E7C046008000403428002080
:10156000014B8000C058704734280020F8B50400B3
:1015700021481E0017000D0000F0C4F901003800DA
:1015800000F0C0F9069B36041B031E432368002BA2
:1015900020DB1A4B1A49E3185A1E9341802292010C
:1015A00094465B421B0B174A1B0363441360164AA5
:1015B00013601F000A689743FBD1144B2560E218A3
:1015C0002123A06013602368002BFCDA0823E66067
:1015D0001360F8BD3F2322681340AB42D9D1A36802
:1015E0001B051B0D8342D4D1EE22E368D2021340C7
:1015F000B342CED1EDE7C046001BB7000040FDBFAF
:1016000008C0004000E0004000F00040043000004E
:101610008023024A9B000B43D36270470080054041
:10162000002310B50100988A1B8B984710BDC04657
:10163000162310B50100188802331B88984710BD87
:10164000F8B54746CE4680B50F1E18D014239946EC
:10165000043304000025012698464B46188843466B
:1016600021681B88984701C4431E984101350640F4
:10167000AF42F2D13000C0BCB946B046F8BD012639
:10168000F8E7C046AA23064A1B0113608D235B00BE
:10169000D3600449044B19605368002BFCDA70478F
:1016A0000040024000B0FA00006002407047C046AF
:1016B00010B50148FEF7E6FEF03A001070B5074D90
:1016C000074EB54209D20024013E761BB60808CD6C
:1016D000984723000134B342F9D170BD503A00104D
:1016E0008C3A0010054B064A06491A60064A074B19
:1016F0001A6010000B689843FBD1704700E000406F
:10170000BFCDFBFE08C00040FE7F3C0000F0004063
:10171000044BDB6C002B03D18022034BD2021A60F6
:101720007047C046000011504C201150044A054B30
:101730001A60054A1368DB018033FBD17047C0464D
:10174000FFFFFF0100F0004008C000404022034BB3
:101750009A675A671A67DA667047C04600F0014018
:1017600010B5FEF72BFF10BDF8B52749274C284DC3
:10177000641AA6103200302E00D9302228009200C0
:1017800000F0D0F9BC2C3BD830202F232C19640753
:10179000204A801BE40F9B1B052B16D93700002C19
:1017A00002D0B300771CEA50001B33199B0041089C
:1017B000EB18C900C9181A605A6008339942FAD167
:1017C000012303421CD09843C619B300EA50731C8E
:1017D0002F2E15D09B00EA50B31C2E2E10D09B004C
:1017E000EA50F31C2D2E0BD09B00EA50331D2C2EFB
:1017F00006D09B00EA50731D2B2E01D09B00EA50AF
:10180000054B9D60F8BDC04600010010C0010010EE
:1018100000000020C101001000ED00E0002310B521
:10182000294C82B0A367FFF72DFF0122274B1A60D6
:10183000636C012BFCD10322254B1A60224A936B67
:10184000012BFCD1013300930121224A22480433A9
:10185000FFF78CFE052301210093204A2048FFF763
:1018600085FE0022022104201E4BFFF705FE002208
:10187000012105201C4BFFF7FFFD0022002107205E
:101880001A4BFFF7F9FD002200210820174BFFF744
:10189000F3FD8023DB000093002200210920134B7D
:1018A000FFF770FD0022104B00210620FFF7E4FD3A
:1018B0000420FFF755FE0E4900F024F80100002037
:1018C000FFF7A6FE02B010BD008000403CB0004013
:1018D00030B00040002F685900800240008C8647DD
:1018E00000C00240001BB70040597307006CDC02C7
:1018F00040420F0001480421014B184710100020FE
:1019000041160010114A936F9B0813D2106651665E
:10191000002905D0FFE7FFE7FFE7516F106F704721
:1019200004B5002801D00020C04302F069F800216E
:1019300004BDC046F0B5146E556E576F166FFFF7B5
:10194000E5FF1466556657671667F0BD000000D0C6
:10195000132370B51D78012D19D014DD1F48FFF732
:1019600067FE06001E48FFF763FE1E4C8022310012
:10197000200000F0D7F8022D2DD01B48FFF750FEB5
:101980001A4B186070BD1A4B164CA364F5E7184B40
:10199000144C23606360A360E36023616361A3610F
:1019A000E36123626362A362E36223636363A3630D
:1019B000E36323646364A364E36423656365A365ED
:1019C000E36523666366A366E36623676367A367CD
:1019D000E367A364D1E7064BA364CEE7534400005A
:1019E00053460000481700204C330000B82C00205C
:1019F000F519001007B5604601880A0A0230DF2A8F
:101A0000FAD1C9B2820804D3028840880004104386
:101A100000E00068014A5050039007BD48170020BD
:101A200051434343C9188C46110C83B24B4310B445
:101A3000040C614392B280B2504362431C041B0CFD
:101A4000001910BC59411304120CC01851416144D3
:101A500070470000132310B512481C78FFF7E8FD0B
:101A60000100012C0AD003DD80220F4800F05AF853
:101A70000E48FFF7D5FD0E4B186010BD0A4C5422DE
:101A8000200000F04FF80B4B6365A365E365236608
:101A90006366A366E36623676367A367E3672362FE
:101AA000E361E5E753460000481800204C3300008E
:101AB000B82C0020B91A001007B5604601880A0A40
:101AC0000230DF2AFAD1C9B2820804D302884088E2
:101AD0000004104300E00068014A5050039007BD25
:101AE0004818002010B5040001F0B6FA002804D010
:101AF000034B04199C4200D810BD0248FEF7C2FCFB
:101B000000000420FC3A001001480421014B184752
:101B10002010002041160010014B1B6818470000E0
:101B200020100020014B5B681847000020100020A7
:101B300010B5002800D110BD00F04CF9FBE7C046FD
:101B400010B5094A0300146884B0002C08D00122A3
:101B500000910648524203A9A047012004B010BDDD
:101B600000F082F90020F9E7702C0020311B0010F2
:101B700000BEFDE7094A03001068002805D00849A7
:101B8000C3188B4207D81360704706480449C3182E
:101B900010608B42F7D901204042F5E76C28002005
:101BA00000000420D02C002010B5FFF7E1FFC04654
:101BB00070B5FFF783FD074D074EB54209D20024EB
:101BC000013E761BB60808CD984723000134B34286
:101BD000F9D170BD8C3A00109C3A0010030010B58A
:101BE000080011001B68984710BDC046F0B5C646F6
:101BF00000B5437D07000C001600002B46D0002ADC
:101C000017DD0B780A2B24D000239846012E13D021
:101C100001252900635C01350A2B26D0B542F8D195
:101C2000464509DCA419013C23780D3B5A42534137
:101C30003B7580BCB846F0BD4346E018A419F11AC4
:101C4000013C3B68984723780D3B5A4253413B7512
:101C5000EFE7037D002BD7D102210F483B6898475F
:101C6000012EDFD001239846D2E7631E5B5C0D2B6B
:101C7000D4D0884504DA4346C91AE0183B6898472F
:101C8000022105483B68A8469847C7E7036811004A
:101C900020009847CDE7C0464C3C0010F0B54546C3
:101CA000DE464E465746E0B583B091461C0080465E
:101CB0000D00FFF799FA0023304A12184B41002B10
:101CC00002DA01222E4B52422E4908008A4601F0C8
:101CD000AFFE07006B1C03D1404601F0EFFC05008E
:101CE000002C27D0284E294B1C68002C18D04B46BE
:101CF000002B21D1264B994602E02469002C0FD0FD
:101D00002368002BF9D04B461B68002B01D09C4266
:101D1000F3D120002A004146B0472469002CEFD1BE
:101D2000002F26D1280003B0F0BCBB46B246A9461E
:101D3000A046F0BD174ED6E7154B99460A239B46A1
:101D400002E02469002CEBD02368002BF9D04B462D
:101D50001B68002B01D0A342F3D12A00414620008A
:101D6000B0476B465A462000DA71D91D0122B047B0
:101D7000E7E7504601F02CFED4E7C04640420F0092
:101D8000FFFFFF7FC0150020ED1B00105C28002026
:101D900068280020DD1B00100A4A1368002B05D1BB
:101DA0000CE01A001B691032002B07D08342F8D1D7
:101DB000002902D118691060196170470029FCD010
:101DC0001060FAE75C28002010B500F039F9012016
:101DD00010BDC046F0B5CE46474680B583B06B46D1
:101DE0000600DD1D2870FFF7FFF90023194A1218BD
:101DF0004B41002B02DA0122174B524217490800CF
:101E0000884601F015FE164B81461C68002C14D044
:101E1000144F02E02469002C0FD02368002BF9D066
:101E20003B68002B01D09C42F4D120000122290004
:101E3000FFF7DCFE2469002CEFD14B46002B05D1C7
:101E4000300003B0C0BCB946B046F0BD404601F01A
:101E5000BFFDF5E740420F00FFFFFF7FC0150020E8
:101E60005C2800206828002070B5040001F026FCE2
:101E700001230100050001222000FFF70FFF084B9E
:101E80001C68002C06D06368002B05D09847246995
:101E9000002CF8D1280070BD2469002CF3D1F9E79B
:101EA0005C280020F0B5002915DD0E4B0D271A68BF
:101EB0000D4B0E4CD3185D426B41451820215B0041
:101EC0001E5F0478A64207D093691942FCD1013005
:101ED0001460A842F5D1F0BD93691942FCD1176096
:101EE000F2E7C046C42C00200080FCBFC02C0020BC
:101EF000204B70B504000D1E1E682ADD0020102145
:101F00001D4B013C1A689369194214D10130936941
:101F10001942FCD1136823548542F4D1002E08D015
:101F200050239363516B183B0B4014498C46624419
:101F30001360280070BD002E08D050239363516BAE
:101F4000183B0B400D498C46624413600028F1D1C8
:101F50000CE0002E0AD05022074B1B689A63596B85
:101F6000183A0A4005498C4663441A6003204042EF
:101F7000E0E7C04624280020C42C002034100000D4
:101F8000064B10B51B68002B06D00021044A1268CE
:101F90009163044A1068984710BDC0462428002069
:101FA000C42C0020282800200822034B19688B69C4
:101FB0001A42FCD17047C046C42C0020F8B51A4F15
:101FC0001A4B3A680500D31858424341184E14334F
:101FD0001C003368002D02D0002B0FD0F8BD002B61
:101FE000FCD0002120009563FEF708FB200011497A
:101FF000FEF73AFC104B35601D60EFE70E4B2000FA
:1020000019600C493560FEF70BFB01212000FEF73B
:10201000F5FA50223B689A63596B183A0A4007490F
:102020008C4663441A60D9E7C42C00200080FCBFB2
:1020300024280020811F00102828002034100000D0
:102040000D4B10B51B780D4B0D4C1B780D4B022121
:102050001B780D4B00202360FEF7F4F902210120CC
:10206000FEF7F0F9E12120684902FFF7FBF80121B2
:102070000648FFF791FE10BDE83C0010E43C00105C
:10208000C42C0020E03C0010004003403010002031
:1020900010B588B004000D2200216846FFF73CFD12
:1020A0000D22002104A8FFF737FD4B236A4668463E
:1020B000137004A90D2201F083FC152108222000D1
:1020C0006944FFF72FFD08B010BDC046F8B500F019
:1020D000E7F80C23194DFF22AB6705201849FEF7DE
:1020E000C9FA184C402200212000FFF715FD4027B7
:1020F000002301262121144A66702783A260136001
:1021000063545F31618445396354104A10496360F8
:10211000E2602787A1620B606362E26201F060FC0B
:1021200080239B052E64EB6490230A4A0120EA5029
:102130008022094B5202DA64F8BDC04600001150FB
:102140000505002070280020840010500001105068
:102150008000105010D001000020115010B5012156
:102160000520FEF74BFA10BDF0B5C646C87800B59D
:102170008007830F1800012B60D08F780A794B7984
:102180007F213940FC091B024E001343334D3219A5
:102190005201AA18977001276740577000275B0506
:1021A0005B0DD7701383D076B846CA00012C32D0AD
:1021B0002B4FBC468F016244BC46AC446746BA60B4
:1021C00047461760002932D0264AC9009046624629
:1021D000414451603F223F339343022837D0224984
:1021E00037190A687F01D3180B602049EF19FA608C
:1021F0008B422ED836197601AD19EB7E1C499B0611
:102200004A4013438022120613436A681360012078
:1022100080BCB846F0BD174FBC468F016244BC4637
:10222000AC446746BA6247461760002908D10023CC
:1022300064012C196360104BE360E8E70020E7E7D6
:102240000B4AC9009046624641445162C2E75B00B6
:10225000C5E7FFF72DFAFA68CCE7C04670280020E2
:102260008400105004001050842C0020FF0F1050E8
:1022700000001050800010500001105010B57F2059
:102280000C0020404000E409110000191A00034B23
:102290004001C01800F024F8012010BD7028002073
:1022A00080220A4B520410B51A60094B09491A6082
:1022B00010000B689843FBD1802200215201064890
:1022C000FFF72AFC0922054B5A6710BD00E00040C9
:1022D00000F0004008C00040000010500000115005
:1022E000002310B5C382013382828376016104002A
:1022F00001F07EFB002804D080219023074A890248
:10230000D150200001F08CFB002802D0012323775C
:1023100010BD200001F094FBFAE7C04600201150E8
:102320007047C046024B5878431E9841C0B2704770
:1023300008260020024B18784007C00F7047C0469F
:1023400008260020F0B5D6464F464646C0B52D4B70
:1023500007009A461B780E00FF2B4DD100293ED076
:10236000002154222848FFF7D7FB0022274C284B96
:1023700020001A70FEF7ECFB264B1C60264C200058
:10238000143CFEF7F3FB200000F01AFE234B244D13
:102390001C60244B002B04D0280000E000BF224B1F
:1023A0001860224A002491461F4A2B7890460EE07E
:1023B00043461B6862019B18002B10D05B68002B02
:1023C0000DD0984701342B78E4B2A34209D3A3423D
:1023D000EED8E31A5B014B445B68002BF1D100207F
:1023E0000BE05346310038001F70FFF76FFE0028E6
:1023F000F5D03800FFF7B2FE0120E0BCBA46B14686
:10240000A846F0BD64100020082600200026002009
:10241000CA2C00205C2600205C10002060260020D2
:10242000C82C002000000000DC1C0020883C0010AC
:10243000F8B557464E46DE4645460C00E0B5160058
:102440001F00002A3CD0702398461E4B00259B4657
:102450001D4B9A461AE05B461B782000994653466E
:10246000997800F083FB00281CD021004846FFF734
:102470007BFE002816D0A378DA09012A19D00A9A1F
:10248000013513702378E418B54219DA6378052B07
:1024900008D1E3789B079B0FBB4203D14246A37848
:1024A0001A42D8D00020F0BCBB46B246A946A0468E
:1024B000F8BD0B9A013513702378E418B542E5DBBB
:1024C0000120F0E76410002008260020702270B57B
:1024D0008B780C001A4201D0002070BD064B200002
:1024E0001D78064B997800F041FB0028F4D02100BC
:1024F0002800FFF739FEF0E76410002008260020CE
:102500000B007F2010B51840DB0934334000044A2B
:10251000C018044B1168C01800F0E4FA10BDC046A2
:102520005C260020082600200B007F2010B51840F4
:10253000DB0934334000044AC018044B1168C0184A
:1025400000F0F8FA10BDC0465C26002008260020E6
:1025500070B57F240F480C4064000419CD0964193C
:1025600030342079C00701D5002070BD01262579BF
:102570000948354300782571FFF780FE0028F4D123
:1025800001222379934323712379033293432371E7
:10259000EAE7C046082600206410002070B5094C08
:1025A0000600082220000D00FFF7BCFA002380215E
:1025B000E360A3602B783000994300220023FFF7EB
:1025C000C7FF70BDEC250020F8B5CE4647469046C3
:1025D000254E80B58146082230000D001F00FFF710
:1025E000A1FA4346B3600023F381EC79AB7924026E
:1025F0001C43231CBC4200D93B1C9FB2B381002C5E
:102600000DD0002F17D04246002A2BD0402F1BD8C8
:102610009FB233787F2B1CD80021144A0FE0802111
:102620002B780022994348460023FFF791FFC0BC56
:10263000B946B046F8BD7F230022317899433B006C
:102640004846FFF785FFF2E740239FB233787F2BA0
:10265000E2D9064C3A0041462000FFF763FA802198
:102660002200ECE70020E2E7EC250020AC2500206A
:1026700070B50400FFF756FE002800D170BDFFF7CB
:1026800059FE0028FAD163011B19DB00124D1B19FA
:10269000DB00EE18F1780029F0D010335D19280026
:1026A00000F0F6FA3F28E9D90020F178FFF728FF7B
:1026B0000028E3D0280000F0EBFAF1783F2807D992
:1026C000064BE201D21800204023FFF741FFD5E777
:1026D0000020FFF729FFD1E7641D0020E01C002047
:1026E000F8B50400FFF71EFE002801D10020F8BD58
:1026F000FFF720FE0028F9D165012D19ED002D19F5
:10270000ED002E00134F2436F619300000F0A2FA27
:102710000028EBD07F190020B978FFF7F1FE0028E0
:10272000E4D00D4DE401651929004022300000F08D
:10273000C5FAB978041E08D003002A000020FFF76C
:1027400007FF0028D2D02000D1E70020FFF7ECFEE1
:10275000CCE7C046641D0020201D0020F0B50025F8
:102760001A4C83B000212000194AFFF7D5F9194B04
:1027700021001D70FF236371E1235B02A360200031
:1027800008238022A37338310095073BD200103014
:1027900000F02AFA8723DB00E118200001238022C1
:1027A0000093D200243000F01FFA0B4BE7183800DA
:1027B000FEF7CEF984231B01E6183000FEF7C8F9B6
:1027C000E56127622663656303B0F0BD641D0020E8
:1027D00048080000601D0020380800000A4A116BFC
:1027E000136A00290CD0002B07D00023D361536358
:1027F0001363002313620120704753631363FAE7E6
:10280000002BF8D0D161F4E7641D002070B50F4CA7
:10281000052200212000FFF77FF90D4D2B78DA0704
:1028200007D50C4C9B070CD50121200000F0E8FBDC
:1028300070BD2000103000F0C3FB2B78054C9B07C7
:10284000F2D4200000F0BCFBEEE7C046641D00207F
:10285000601D0020881D0020F0B54B79060083B074
:10286000022B02D18B79022B03D00025280003B064
:10287000F0BD204FBB78002BF7D18B7809253B703A
:102880000C780C196378242B07D00CE02378E4181B
:102890005D196378ADB2242B05D19542F6D900209D
:1028A000FFF7E6FEE2E71A00052B15D0042AF6D161
:1028B00063790A2BF3D1104B2778019301330093EE
:1028C00030000223E119023AFFF7B2FD0028CCD014
:1028D0000E35ED19ADB2E2E721003000FFF7F6FD4D
:1028E0000028C2D0A3787B7023785D19E418627841
:1028F000ADB2DBE7641D0020661D0020F8B5602343
:1029000014001278050013400020202B07D1304A14
:102910006379277916781B023B439E4200D0F8BDAD
:102920006378222B1AD007D8202B34D0212BF6D154
:1029300001293ED00120F2E7232BF0D1012940D01C
:102940000329F7D1234B002BF4D0E178A3780902B7
:102950000020194300E000BF0120E0E7012930D04A
:102960000329E7D101252E00A378E4780239240257
:102970001C431471264024321000714000F040FBCB
:10298000154B002BD6D06208002031002A4000E011
:1029900000BF0120C3E701290BD00329CAD10F4B87
:1029A000002BC7D008320020110000E000BF01203A
:1029B000B5E7072321002800094AFFF705FE01209B
:1029C000ADE721002800FFF7E9FD0120A7E7C04699
:1029D000641D002000000000000000000000000056
:1029E0006C1D0020F0B54F464646D646C0B5364D64
:1029F0008046EA780C001F008A423CD0AB788B42BC
:102A000010D00020E0BCBA46B146A846F0BD2F4B1E
:102A1000002B04D02E4800F033F9002851D00020BC
:102A2000FFF726FEAB78A34201D00120EAE7294B4D
:102A3000002B02D0002000E000BF0020FFF750FE76
:102A40000028F2D1244C200000F004F90028ECD139
:102A5000002FEAD0BF06E8D1243C4046A178FFF71A
:102A60004FFD0028E1D0002300224046A178FFF767
:102A70006FFD0120C6E79AB210239A46174EAA446A
:102A80003100504600F0E0F9154B002BBFD06B79B8
:102A9000FF2BBCD0002FBAD0F219914603E00136CB
:102AA0004E45B4D06B7932789A42F8D1504600F056
:102AB000E7F80028F3D15346103B597900E000BFF6
:102AC000EDE700E000BFAAE7641D00200000000061
:102AD000741D002000000000881D0020E01C002064
:102AE00000000000037870B5DB0704000E00DD0F66
:102AF000002B17D103785B0701D5280070BD012199
:102B00003000494200F084FF2378DB07DD0F002B03
:102B10000AD123785B0708D40422237801251343C4
:102B2000237002E00025E8E70025300000F050FFA8
:102B3000E3E7C04670B50C000121060049422000C1
:102B400000F066FF33785B07DD0F002B04DB20000D
:102B500000F03EFF280070BD3378DB0704D4042268
:102B6000337893433370F2E70025F0E74379027935
:102B70001B021343C2785B0592075B0D920F022A7A
:102B80001DD0032A0CD00020012A08D102394A4264
:102B90005141124A9446614499424041C0B2704743
:102BA00002394A1E91410E4A494211408022D20008
:102BB00094460020614499424041C0B2EFE70229A7
:102BC00005D0002040229A424041C0B2E7E7054AC2
:102BD000981843425841C0B2E1E7C046FF030000E5
:102BE00040FCFFFF00FEFFFFF0B5C64600B5040045
:102BF0006846057E8020884617001E00000282423B
:102C000026D8E068002803D00121494200F000FFE7
:102C10002069002803D00121494200F0F9FE434613
:102C2000236073045B0CED031D430023E0686381A4
:102C3000A780E5802381002801D000F0C9FE20692B
:102C4000002801D000F0C4FE012080BCB846F0BDD1
:102C50000020FAE710B5048941898288A3B288B2BE
:102C60008C4207D31B1A9BB2101C9A4200D9181C25
:102C700080B210BD5100091A5B189BB2F4E7C04640
:102C800003894089181A43425841C0B27047C04670
:102C900010B5048941898288A3B288B28C4207D3D7
:102CA0001B1A9BB200209A4201D9D21A90B210BDD1
:102CB0005100091A5B189BB2F4E7C046F0B54646CE
:102CC0004F46D646C0B506000069894690460028A2
:102CD00003D00121494200F09BFE31897289B588F9
:102CE0008BB294B2914254D31F1BBFB2002F4AD073
:102CF000BD4205D2AB4251D25B199CB22F00748108
:102D00004346B8453DD89FB2A54203D8641BA4B240
:102D1000A542FBD9F28831685204520C90466243B6
:102D20002B1B9BB2891842469F4225D953439BB225
:102D30001A0048469A46FEF7F5FE434648467D1B74
:102D400064195C4331685044A2B2FEF7EBFE71890E
:102D5000B588CB199BB26A00994216D99B1A9BB2CF
:102D600030697381002801D000F032FE3800E0BCE9
:102D7000BA46B146A846F0BD48467A43FEF7D2FEB1
:102D8000E5E73B1CBFE773899BB26A009342E7DB30
:102D9000E4E76F003F1BDF19BFB2A7E75B1B9CB2E4
:102DA000ACE7C046F8B50400C0680E00002803D0A8
:102DB0000121494200F02CFE258920896189A288E1
:102DC000ADB283B28FB2884229D3DB1B9BB29A4249
:102DD00009D8E779FF0906D1E068002801D000F0A2
:102DE000F7FD3800F8BD2B0095421DD39B1A9BB20E
:102DF0009342FBD2E28820685204520C53433100C4
:102E0000C018FEF78FFE6B1C9BB2A2889D4217D99B
:102E1000002352009B1A9BB201272381DCE751005B
:102E2000C91B5B189BB2D2E7E28820685204520C9F
:102E300053433100C018FEF775FE0135A288ABB2CE
:102E400052009342E8DBE5E7F0B54E465746DE46D2
:102E50004546E0B589460600170083B0002A67D0D2
:102E6000C068002803D00121494200F0D1FD338918
:102E7000F2799BB298467389B5889BB2D20940D14A
:102E800098455ED26A00D31A43449BB2AB425DD2EE
:102E9000EB1A1A1C9BB2BB4200D93A1C97B27B1B9F
:102EA0009BB20193F3885B045B0C9A464346DB19A3
:102EB0009BB29B464446A84503D3641BA4B2AC42D4
:102EC000FBD25346634330682D1BADB2C018BD42E0
:102ED0004BD3524649467A43FEF724FEB3885B0043
:102EE000D84501D89B4503DB5A46D31A9BB29B4673
:102EF0005B463D003381F06800281AD000F068FD81
:102F000017E0F2885204520C9246AF4220D2984504
:102F10004DD34246D21A92B26900781B80B2D219C0
:102F200001908A4233DA4346FB189BB29B46C1E7C5
:102F30000025280003B0F0BCBB46B246A946A04617
:102F4000F0BD4246D31A9BB2AB42A1D30025D2E7D3
:102F5000002DD0D07F1B574398465A19002392B2B8
:102F6000B94493462F000193A4E753465D43ADB2A5
:102F70002A004946FEF7D6FD019B2900E218534678
:102F80005A43306892B24944FEF7CCFDA6E75A197D
:102F900092B29346D21B92B2904693420CD94346CA
:102FA000591A8BB29846FB189BB29B4682E7690080
:102FB000CA1A424492B2B0E7914200DD7AE7EEE7E6
:102FC00010B50400C068002803D00121494200F078
:102FD0001FFD2069002803D00121494200F018FD9F
:102FE0000023E06863812381002801D000F0F0FC19
:102FF0002069002801D000F0EBFC012010BDC04684
:1030000070B50400C0680D00002803D001214942BA
:1030100000F0FEFC2069002803D00121494200F0A5
:10302000F7FC7F21E379ED011940E0682943E17164
:10303000002801D000F0CCFC2069002801D000F06D
:10304000C7FC012070BDC04610B50248FFF720F84C
:1030500010BDC046B02C002010B5034B010018680D
:1030600000F004F810BDC04678140020F0B54E46BC
:103070004546DE465746E0B50D000B35060085B0E7
:10308000162D21D8102900D9D4E000F0D5FA10254A
:1030900018230221CA4FFB181A005C68083A9442B0
:1030A00000D186E103226368A1689343E268CA60A5
:1030B00091600121E3185A6830000A435A6000F019
:1030C000C3FA20000830B8E007239D4300D5B1E0E3
:1030D000A94200D9AEE000F0AFFAFC235B009D42AC
:1030E00000D2E0E1690A00D1AEE0042900D9A1E1F3
:1030F00038239846A90988443931CB000822524226
:103100009446AF4FFB189C446346DC68A44514D03A
:10311000032399460B0061469C4607E0E068002ABD
:1031200000DB40E1814200D141E104004A4663688E
:1031300093435A1B0F2AF1DD41463A003C6908329D
:10314000944200D11EE1032063688343581B0F287B
:1031500000DDACE13A617A610028AADA7A6890462B
:1031600080229200934200D336E1DA085809012305
:103170008340404618438046D300DB199A68786044
:10318000E360A2609C60D46001208B1098404045B1
:1031900062D8434603420AD1032399434346400081
:1031A0000431034203D1400004310342FBD0032326
:1031B000B3469C460E00B8460190F0004044010022
:1031C000B246CB680BE064465A681F00A243DB6836
:1031D000541B0F2C00DD39E1002C00DB53E1994238
:1031E000F1D101239946CA44534608319B07E8D1DF
:1031F000032205E003680838013E834200D013E251
:103200003242F7D14346019A5B689343424653608A
:10321000019A520001929A421CD8002A06D119E064
:1032200004229146019ACA44520001921342F7D0F7
:103230005646C2E70C233360002005B0F0BCBB4605
:10324000B246A946A046F0BD80233F2240219046C9
:103250009B0053E75E4647460322BC68636893437E
:103260009846AB4203D35B1B0F2B00DD8DE02300A0
:1032700043440293534B08201B6810335B1901939E
:1032800000F006FA504903900B688A46013306D0D5
:103290008446019B4242013B63441340019330004A
:1032A000019900F0D9F903008146013300D11CE1F6
:1032B000029B834200D916E1444B02989B461A6850
:1032C000019B59469C4662440A600399013948456E
:1032D00000D157E153461B68013300D15EE14B46F4
:1032E00002981B1A9B185A46136007234A46484601
:1032F0001A400292184200D115E103980133844626
:103300009B1A019A99444A44019263440A409B1AC9
:10331000194030008A4600F09FF9431C00D158E163
:103320004B46C01A0300534401935B461A680120C0
:1033300052441A604B464946BB60019B03434B60B5
:10334000BC4213D043460F2B00D82BE107210C3B86
:103350008B4361680140052019436160E1184860B2
:1033600088600F2B00D93FE14B465B68184908681D
:10337000904200D20A6017490868904200D20A6061
:103380004C46B4E07B689846FEE6012229001343D0
:103390001143651961603000BD606B6000F054F945
:1033A0002000083049E7A268D060826081E661466B
:1033B000C3E6DC680231A34200D1BEE672E6C04635
:1033C00070100020A01B002068100020701B00203F
:1033D000981B00209C1B00205A0A042A7CD9142A1E
:1033E00000D9B0E010005B3082465C32D200082089
:1033F00040428446BA189444624692680B30814633
:10340000944500D186E00800A2466146844602E069
:103410009268914204D04C465068A0439842F7D835
:10342000D368614654469C466346A260E3609C6054
:10343000D460A9E6142967D9542900D98CE06E23F9
:103440009846290B88446F31CB0057E6BA460120D5
:1034500051468446491905435046456085684746AC
:103460006046EB605E469D6053463961796120435A
:1034700008374860CF6030008F609C5000F0E4F85F
:1034800050460830D9E6BA4601205E46524451689B
:1034900001435160BA683000D3609A6000F0D4F8FC
:1034A00038000830C9E62B00E9080833F2E5611955
:1034B000884601218C460D4341466560396179613A
:1034C000CA608A60624602434A60E050300000F001
:1034D000BBF820000830B0E69A09100039323830C5
:1034E0008246D20083E7BC4241D0BC6863680322B5
:1034F00093431A005B1BAA4202D30F2B00DD44E763
:10350000300000F0A1F897E65B23984688445C31D0
:10351000CB00F3E5534698100123834040461843FF
:103520008046786080E7019B039A4B440B40D31A96
:10353000194030008A4600F08FF8431C00D0EFE6B7
:1035400000239A46F1E6542A2ED81A0B10006F3247
:103550006E308246D2004AE7AA235B0099422ED8F9
:10356000DD3B9846E90B88447831CB00C6E5304B0B
:103570009B461A68019B9C465B4662441A60039B0B
:10358000591EA7E64846084200D0A3E6B96843445E
:10359000894601210B4349464B60E7E653464A46BC
:1035A0001A60A2E64860ABE7AA204000824226D813
:1035B000DA0B1000783277308246D20017E71D4BC5
:1035C000994226D87C239846A90C88447D31CB00AB
:1035D00094E5019A029B94464A46083B63449B1A31
:1035E000019300239A46A0E621003000083100F044
:1035F000EDF85B461A68BB6899465B68B6E60D480D
:1036000082420CD89A0C10007D327C308246D20067
:10361000EDE6FE237E227F2190469B006EE5FE2292
:103620007E2092008246E2E643465B68F0E5C046B3
:10363000701B00205405000010B5024800F024F86B
:1036400010BDC0466C1B002010B5024800F01EF8EB
:1036500010BDC0466C1B0020002370B5064C050051
:1036600008002360FEF786FA431C00D070BD236873
:10367000002BFBD02B60F9E764280020014B186871
:103680007047C046781400207047C0467047C04657
:10369000802310B55B01082801D1180010BDFFF789
:1036A000EDFF16230360173BF7E7C04603000A78D7
:1036B00001311A700133002AF9D1704710B5830720
:1036C0000AD00300032102E001330B4205D01A782F
:1036D000002AF9D1181A10BD030019680C4A0D4CC4
:1036E0008A188A4322420FD15968094A04338A183A
:1036F0008A43224208D15968054A04338A188A430A
:103700002242F1D000E001331A78002AFBD1E1E730
:10371000FFFEFEFE80808080F0B5C646060000B544
:1037200008200D00FFF7B4FF04003000FFF784FF0E
:10373000234B210098469B685F6803239F43380012
:103740001138401B0019FEF7DDF8451E6543AC42F9
:1037500008DC00213000FFF77FFF43469B68DB1940
:10376000984206D03000FFF76FFF002080BCB846BB
:10377000F0BD30006942FFF76FFF01300ED001222B
:1037800043467F1B9B6817430E4A5F6013683000F7
:103790005B1B1360FFF758FF0120E7E700213000B3
:1037A000FFF75AFF43469A68831A0F2BDADD064C5F
:1037B00004492468001B086001210B435360D1E7D2
:1037C00070100020701B002068100020F0B5D64655
:1037D0004F46464605000C00C0B5002948D0FFF70B
:1037E0002BFF2100012708394B6803209C46BB436F
:1037F000CE18726882436046384080466A489146D7
:103800008468B44200D17CE07260B41864683C40C3
:10381000A2464446002C30D10C68A446091B8C6893
:103820006344A4460824A0468044C4455CD0CC68C8
:10383000A04664464246E26094605246002A1FD089
:103840001F434F60336080229200934230D2DA08E7
:103850005C090123A340446823434360D3001B1841
:103860009A68CB608A609960D1602800FFF7ECFE0F
:10387000E0BCBA46B146A846F0BD5246002A0FD178
:1038800001224B44CF18BC46B468484F1A43BC428F
:103890005BD0F668E660B4604A6062461360D2E7C7
:1038A00062463A434A608022336092009342CED30C
:1038B0005C0A042C3FD89C09260039343836E400D1
:1038C00004192268083C0327944203D14EE0926811
:1038D000944203D05068B8439842F8D8D468CC607A
:1038E0008A60A160D160C0E75246002A35D14B44BE
:1038F0001A00B068F3681743C36098604F608A503D
:10390000B3E74B441A004346002B06D10B68C91A93
:103910008C68D218CB68E3609C60012313434B6032
:10392000234B81601B6893429FD8224B2800196863
:10393000FFF7F2FE99E7142C13D9542C1DD81C0B59
:1039400026006F346E36E400BAE7E160A1604A6099
:103950006246CC608C60136087E71F434F60336022
:1039600083E726005C345B36E400A9E70123B61048
:10397000B340466833434360B1E7AA225200944201
:1039800005D8DC0B260078347736E40098E70A4A3D
:10399000944205D89C0C26007D347C36E4008FE7E9
:1039A000FE247E26A4008BE77010002078100020F3
:1039B0006C100020A01B002054050000F8B5C04684
:1039C00001B40248844601BC604700BFC102002028
:1039D00001B40248844601BC604700BFE5010020F5
:1039E00001B40248844601BC604700BFFD030020CB
:1039F00001B40248844601BC604700BFD90B0020D7
:103A000001B40248844601BC604700BF190F002082
:103A100001B40248844601BC604700BF5901002040
:103A200001B40248844601BC604700BF010C00207D
:103A300001B40248844601BC604700BFC1000020B9
:103A400001B40248844601BC604700BF910C0020CD
:103A5000E516001011170010F5180010091B0010D2
:103A600051190010551A00101D1800102D170010C4
:103A70004D17001061170010010B0010691700109E
:103A8000B90E0010AD160010D90500104930001015
:0C3A9000B102001025030010D903001043
:103A9C000A2A2A2A2050414E4943202A2A2A0A005F
:103AAC000A0000004E6F207370696E6C6F636B734D
:103ABC002061726520617661696C61626C650000E1
:103ACC00486172647761726520616C61726D20254A
:103ADC006420616C726561647920636C61696D65E9
:103AEC006400000048617264206173736572740035
:103AFC004F7574206F66206D656D6F7279000000D4
:103B0C0052656C6561736500626F6F74325F7732FA
:103B1C003571303830000000322E322E300000006B
:103B2C007069636F000000004D61726C696E737098
:103B3C00696B65004D6172203233203230323600B1
:103B4C005541525420737464696E000055415254AF
:103B5C00207374646F7574005541525420737464EF
:103B6C00696E202F207374646F757400556E6861D4
:103B7C006E646C65642049525120307825780A00B7
:103B8C00657020253032582077617320616C726526
:103B9C0061647920617661696C61626C650000001A
:103BAC0043616E277420636F6E74696E756520783F
:103BBC00666572206F6E20696E616374697665202C
:103BCC0065702025303258004C4544000000000040
:103BDC0000000000C903001039030010610300103D
:103BEC009103001075030010BD0300100600525025
:103BFC00D3F075420C3B001006005250E182887FD6
:103C0C00143B001006005250ABB36053243B001021
:103C1C0006005250BBFF3CB62C3B00100600525025
:103C2C00861C0302343B0010060052505422A29D05
:103C3C00403B001005005250DE65F468F451001052
:103C4C000D0A00000600525053B4F4A1643B00105E
:103C5C000800525012000000080052509210000050
:103C6C005E0D00205E0D0020A80D0020C80D002068
:103C7C00060E0020180E0020540D0020000000003D
:103C8C005D270010DD2700100D28001059280010AA
:103C9C00FD280010E529001000000000090052501A
:103CAC0000000002D43B0010080052501210020019
:103CBC00F83B0010043C0010103C00101C3C0010A1
:103CCC00283C0010343C0010403C0010B43C001068
:103CDC00A83C0010643C00105C3C0010503C0010F0
:103CEC00F0B5C646150000B504001E000268EFF3DF
:103CFC00108172B61368002BFCD0BFF35F8F0423C6
:103D0C00E3562268002B2BDBBFF35F8F0020106083
:103D1C0081F31088D02212061278002752B29046F6
:103D2C009A420ED1002080BCB846F0BDBFF35F8F25
:103D3C00176081F310882800310000F039FF00284B
:103D4C00F0D12268EFF3108172B61368002BFCD00F
:103D5C00BFF35F8F237922687F2BE7D9434602E0BC
:103D6C00D0231B061B682371BFF35F8F00231360E6
:103D7C0081F310880120D6E7F0B5C64600B50D00DA
:103D8C00040000F0DDFEFA2206000F0000232800DC
:103D9C000021920000F0FCFE36184F41002F02DA91
:103DAC000126174F7642D0231B061B680025984628
:103DBC000AE0BFF35F8F156081F310883000390083
:103DCC0000F0F6FE002818D12268EFF3108172B6CD
:103DDC001368002BFCD0BFF35F8F237922687F2BF5
:103DEC00E7D943462371BFF35F8F0023136081F340
:103DFC001088012080BCB846F0BD0020FAE7C04610
:103E0C00FFFFFF7F0268EFF3108172B61368002B7F
:103E1C00FCD0BFF35F8FFF2303710368BFF35F8F89
:103E2C0000221A6081F3108840BF704710B5084C0F
:103E3C002378002B0AD18023064807495B051A68B2
:103E4C00C25004338B42FAD10123237010BDC046FB
:103E5C00CB2C0020242700100001001010B5014BC2
:103E6C00984710BD25270020064B5A6802609A68B7
:103E7C004260DA6882601A69C2605A6902619B69A1
:103E8C0043617047000002400268064B5A6042686A
:103E9C009A608268DA60C2681A6102695A61426982
:103EAC009A61704700000240034B1A68C0239B00C4
:103EBC009343024A136070470C8001400C90014000
:103ECC00054B1A6880239B005340C022920013407C
:103EDC00024A13607047C0460C8001400C900140B0
:103EEC000023F0B5DE4657464E4645469A46E0B5A9
:103EFC0089B001900E00988A45491B8B1400984795
:103F0C00534681464349988A1B8B984753464249EE
:103F1C000500988A1B8B98478046FFF787FF02A8FD
:103F2C00FFF7A2FFC847A847FFF7CAFF251E22D0FC
:103F3C000823C0219C460220490562468B6A1A4020
:103F4C0018423FD0631B002D2FD1002A11D1002C19
:103F5C0011D0C0235B059B4602239A460633994633
:103F6C005B464A4657469B6A1A401F4242D0002A7B
:103F7C00F6D0002C30D1FFF797FFC047FFF76EFF4C
:103F8C0002A8FFF781FF09B0F0BCBB46B246A946B8
:103F9C00A046F0BD002C2FD1C0225205926A91464A
:103FAC0008224F463A40BF072DD50D2B1BD9002AAE
:103FBC00F0D1C0225205926A914608224F463A40EF
:103FCC00BF07F2D4002A04D12B002343002BB4D119
:103FDC00D1E72B00002CF9D00B6E013C3370230081
:103FEC0001362B43F2E7019F013D3B7801370B660D
:103FFC000197E7E70025E5E7C0235B051B6E013C55
:10400C003370013699E72B00002ADFD1DCE7C0467C
:10401C004946000045580000464300000022154B5D
:10402C0010B59A60DA601A615A619A61DA611A62A3
:10403C005A629A62DA621A635A639A63DA631A648E
:10404C005A649A64DA641A655A659A65DA651A666E
:10405C005A669A66DA661A675A679A67DA67F032AE
:10406C0092000021044800F09BFD044B044A1A60A6
:10407C0010BDC04600001050B0280020842C002039
:10408C0080011050F0B54E464546DE465746E0B529
:10409C00214B00249E6D012585B0002E22D01F4B94
:1040AC009A46012399461E4B984601E0202C19D0C4
:1040BC002A00230001342F003240E4B26D00002AA4
:1040CC00F4D0524697654A465B085B0022409B1829
:1040DC005B01434418009B4600F01EFC002808D1ED
:1040EC00BE43E3D105B0F0BCBB46B246A946A046E0
:1040FC00F0BD5B46E0219A78DB8A01A8836000233F
:10410C00C900018001210271437100F025FC584661
:10411C0000F0A0FBE4E7C046000011500030115045
:10412C00702800209823F0B5C646C84A00B5D5586B
:10413C0080232E009B02102484B01E401D4274D09C
:10414C00C34BC44C9A6AC44B00261A603B23E35CF5
:10415C00022B00D14FE17B23E35C022B00D1F3E077
:10416C00BB23E35C022B00D1FAE0FB23E35C022BC4
:10417C0000D101E13C23FF33E35C022B00D12DE1A4
:10418C007C23FF33E35C022B00D10EE1BC23FF3315
:10419C00E35C022B00D13FE1FC23FF33E35C022BF9
:1041AC0000D1F5E0AD4BE35C022B00D174E1AC4BDC
:1041BC00E35C022B00D105E1AA4BE35C022B00D19E
:1041CC0075E1A94BE35C022B00D132E1A74BE35C18
:1041DC00022B00D1A0E1A64BE35C022B00D171E1D4
:1041EC00A44BE35C022B00D1A1E1A34BE35C022BBB
:1041FC0000D17FE1002E08D1A04B1B78002B04D1FD
:10420C0080219F4A90338902D150C02269468F4B3E
:10421C0092009B6C80265B058A805B0D012101A8B6
:10422C00029300F099FB974CB602EB0600D57FE0A9
:10423C0080235B021D4231D01E4301230224984689
:10424C00844FBB7E002B14D000F08AFC012800D9CF
:10425C0072E0C02200213800920100F001FB38000E
:10426C0000F0F8FA00F07CFC012802D9844B5C6663
:10427C001C664346FB702037012C22D1C0236A46B2
:10428C00DB009380804A02AB03CA03C3012101A85F
:10429C0000F062FB80227A4B92021A6580235B014C
:1042AC001D4210D18023DB011D4223D180231B0230
:1042BC001D422FD1AE4200D0C0E104B080BCB84644
:1042CC00F0BD0124BDE700241E43604B1C60FFF7CA
:1042DC00A5FE80236A465B0093801472012101A81D
:1042EC0000F03AFB8022664B12031A658023DB0137
:1042FC001D42DBD01E4380236A46DB0093800121E4
:10430C0001A800F029FB10225D4B1A6580231B02CB
:10431C001D42CFD01E43A0236A46DB0093800121AF
:10432C0001A800F019FB8022554B12011A65C1E758
:10433C00FFF7A8FE26007BE7544B444A1C66536EDD
:10434C002340A342FBD184E77833E75C002F00D1F4
:10435C0006E70233E25C002A00D00DE13E00FFE6E6
:10436C00B833E75C002F00D1FFE60233E25C002A91
:10437C0000D0F9E03E00F8E6F833E75C002F00D1FE
:10438C00F8E60233E25C002A00D041E13E00F1E69F
:10439C00F933FF33E75C002F00D103E70233E25C13
:1043AC00002A00D02BE13E00FCE67933FF33E75CBA
:1043BC00002F00D1EAE60233E25C002A00D015E1BE
:1043CC003E00E3E6324BE75C002F00D1F4E602330B
:1043DC00E25C002A00D001E13E00EDE63933FF3308
:1043EC00E75C002F00D1CBE60233E25C002A00D060
:1043FC00EBE03E00C4E63833E65C002E00D1AAE6C2
:10440C000233E25C002A00D1A5E620000022203015
:10441C00E25400F04DFA9EE6B933FF33E75C002F0F
:10442C0000D1B9E60233E25C002A00D0C4E03E00C1
:10443C00B2E6184BE75C002F00D1C7E60233E25C12
:10444C00002A00D0B0E03E00C0E6C046000011508B
:10445C000040054070280020602800203B0200002E
:10446C007B020000BB020000FB0200003B030000CB
:10447C007B030000BB030000FB030000C92C0020E1
:10448C00003011501000020000001050002011509C
:10449C007A020000FA0200006B4BE75C002F00D19F
:1044AC0085E60233E25C002A76D13E007FE6674B5C
:1044BC00E75C002F00D184E60233E25C002A63D172
:1044CC003E007EE6624BE75C002F00D188E60233AB
:1044DC00E25C002A00D0A3E05E4BE35C022B30D1FF
:1044EC005D4BE35C002B27D15C4BE35C022B00D0D3
:1044FC008BE63E005A4BE35C002B00D17AE6FF239F
:10450C009B00E25C002A00D17FE60022E2541C3BB7
:10451C00E01800F0CDF978E6524BE75C002F00D1A3
:10452C0059E60233E25C002A16D13E0053E64A4BB0
:10453C00E35C002B00D158E6EF239B00E25C002AE1
:10454C0075D1464BE35C022B00D05EE6444BE35C3A
:10455C00002B00D159E6D2E70022E2541C3BE018B4
:10456C0000F0A6F93E0036E620000022A030E2540E
:10457C003E0000F09DF9F8E5200000226030E25486
:10458C003E0000F095F9EBE50022E2541C3BE018EC
:10459C0000F08EF93E0014E60022E2541C3BE018B9
:1045AC0000F086F93E0002E60022E2541C3BE018C3
:1045BC0000F07EF93E0009E620000022A130FF3019
:1045CC00E2543E0000F074F9E6E5200000222130B0
:1045DC00FF30E2543E0000F06BF9D1E50022E254CA
:1045EC001C3BE01800F064F93E00E5E520000022D9
:1045FC006130FF30E2543E0000F05AF9C6E520006D
:10460C000022E130FF30E2543E0000F051F9C9E5E0
:10461C0020000022E030E2543E0000F049F9A9E508
:10462C000022E2541C3BE01800F042F954E700224F
:10463C00E2541C3BE01800F03BF982E731000A48D9
:10464C00694000F085FAC0463A020000BA02000048
:10465C007A030000BB030000BA030000FB03000058
:10466C00FA0300003A030000783B0010F0B5C64690
:10467C0000B50200838A008B8C46011C984200D93D
:10468C00191CD47880252000461EB04189B2ED005B
:10469C000D434003284301256C405B1AD4705478B9
:1046AC009BB29382002C31D16446D568A4014E1E76
:1046BC002D19B0461469002923D0062E32D92B00AF
:1046CC0023439B072ED1631CEB1A022B2AD9002300
:1046DC008F08BF00E658EE5004339F42FAD1434690
:1046EC00ED19DB1BE419B94209D026782E70002B8A
:1046FC0005D066786E70012B01D0A378AB7014696D
:10470C00938A64181461802212021043002B02D188
:10471C008023DB0118436346002B00D0000480BCCF
:10472C00B846F0BD0023E65CEE5401339942FAD151
:10473C00E5E7C0468368F0B51A680400002900D08C
:10474C00120C63789205900D002B08D1E38AC318E4
:10475C00E382238B834201D90023A382F0BDE3685B
:10476C00890125695E18471E002822D0062F26D9FC
:10477C0001315B18EB1A022B21D92B0033439B0719
:10478C001DD10023120E9200F158E95004339A42C5
:10479C00FAD1BF1AAD18B618904209D032782A70E7
:1047AC00002F05D072786A70012F01D0B278AA70F0
:1047BC002569E38A2D18C318E3822561C9E7002215
:1047CC00B35CAB5401329042FAD12569F1E7C04693
:1047DC0010B50400836800211B68FFF7ABFF63680A
:1047EC001B685B0002D5238B834200D010BD0121D6
:1047FC002000FFF79FFFF9E7084A0300126C002026
:10480C00920703D49A78D209012A00D07047D87E37
:10481C00023843425841C0B2F8E7C046000011507C
:10482C0010B5FFF7E9FF00280CD00749074B8C4661
:10483C00074A9B6A126863449B1A0020C6229A425C
:10484C004041C0B210BDC046E0FCFFFF0040054037
:10485C006028002000238376436103617047C046C3
:10486C0010B58368002901D01C682140002A12D0A1
:10487C008024E400114322420DD01A6822420CD14C
:10488C00084A0A401A60084A126C920703D40C2397
:10489C00033BFDD28368196010BD8178034800F09A
:1048AC0057F9C046FFFBFFFF000011508C3B001076
:1048BC00436870B50021802504001E68FFF7D6FE02
:1048CC00124B6D011A6C0543A37892070ED55B064B
:1048DC000ED00F4B1E4080239B0533436268002192
:1048EC00136020002A00FFF7BBFF70BDDB09F0D07E
:1048FC00A38A002BEDD001212000FFF7B7FEA023E7
:10490C00044ADB05324005431343E7E7000011502E
:10491C00FFFFFFAFFFFFFFDF70B5857E0400002DAA
:10492C0014D0FFF755FFA38A002B01D1280070BDCE
:10493C002000FFF775FF002803D001230025237703
:10494C00F4E72000FFF7B4FF0025EFE7817801487A
:10495C0000F0FEF8AC3B0010F0B5CE46474680B5F3
:10496C00437805000E0085B0062B08D86B4A9B00D7
:10497C00D3589F466A4A13780133DBB21370694BE4
:10498C001C686269EFF3108172B61368002BFCD0BF
:10499C00BFF35F8FA1612000290000F0F1F862697C
:1049AC00A369BFF35F8F0021116083F31088002887
:1049BC0004D105B0C0BCB946B046F0BD3200697830
:1049CC00287800F0D5F8F4E70121574B1A788A4380
:1049DC001A701A7801318A431A7000225A701A78A8
:1049EC0002318A431A70CAE7504B514F9946514BCA
:1049FC00002498463A7810E043461B6861015B1826
:104A0C00002B06D0DB69002B03D069682878984707
:104A1C003A780134E4B2944217D8A242ECD8A31AE3
:104A2C005B014B44EEE7404B1A78D207C1D5042109
:104A3C001A780A431A70A2E73B4B1A78D207B8D5FA
:104A4C0004211A788A431A7099E7374F3B785B0731
:104A5C002BD504223B78002193433B706B460632E6
:104A6C00981D00F09DF82B7801AC23700523637022
:104A7C002C4B1B6898465A69EFF3108172B6136879
:104A8C00002BFCD0BFF35F8F434640469961210059
:104A9C0000F076F843465A699B69BFF35F8F00219B
:104AAC00116083F31088002831D1FB78DB0700D428
:104ABC007FE76B460A220021981D00F071F82B78D5
:104ACC0001AC2370032363706B686360154B1D6826
:104ADC006A69EFF3108172B61368002BFCD0BFF338
:104AEC005F8FA9612800210000F04AF86A69AB6960
:104AFC00BFF35F8F0021116083F31088002800D171
:104B0C0057E732006178207800F032F851E7320034
:104B1C006178207800F02CF8C7E7C0466C3C001098
:104B2C00CA2C00206026002008260020883C00109B
:104B3C00C82C0020DC1C00207047C0460000000080
:104B4C0001B40248844601BC604700BFE911001063
:104B5C0001B40248844601BC604700BF85040010C4
:104B6C0001B40248844601BC604700BF79040010C0
:104B7C0001B40248844601BC604700BF21230010E9
:104B8C0001B40248844601BC604700BFA52D00104B
:104B9C0001B40248844601BC604700BF211A0010D2
:104BAC0001B40248844601BC604700BF191B0010C9
:104BBC0001B40248844601BC604700BFB910001024
:104BCC0010000000000000000000010000000000C8
:104BDC0000000000000002000000000000000000C7
:104BEC000000030000000000000000000000FF00B7
:104BFC000000000001B5486801318E460047704640
:104C0C0009380149884701BD3D0A00100000000029
:104C1C000000000000000000000000000000000088
:104C2C00C81500200000000000000000000000007B
:104C3C00503300004C33000054330000523300005A
:104C4C004D5300004D43000053340000433400002A
:104C5C00A51E0010A91F0010F11E0010BD1F001092
:104C6C0000000000000100006426002010000C0071
:104C7C000000000000000000000000000000000028
:104C8C0000000000FF000000FFFFFFFF000002001B
:104C9C0000000000000000007010002070100020C8
:104CAC007810002078100020801000208010002048
:104CBC0088100020881000209010002090100020F8
:104CCC009810002098100020A0100020A0100020A8
:104CDC00A8100020A8100020B0100020B010002058
:104CEC00B8100020B8100020C0100020C010002008
:104CFC00C8100020C8100020D0100020D0100020B8
:104D0C00D8100020D8100020E0100020E010002067
:104D1C00E8100020E8100020F0100020F010002017
:104D2C00F8100020F81000200011002000110020C5
:104D3C000811002008110020101100201011002073
:104D4C001811002018110020201100202011002023
:104D5C0028110020281100203011002030110020D3
:104D6C003811002038110020401100204011002083
:104D7C004811002048110020501100205011002033
:104D8C0058110020581100206011002060110020E3
:104D9C006811002068110020701100207011002093
:104DAC007811002078110020801100208011002043
:104DBC0088110020881100209011002090110020F3
:104DCC009811002098110020A0110020A0110020A3
:104DDC00A8110020A8110020B0110020B011002053
:104DEC00B8110020B8110020C0110020C011002003
:104DFC00C8110020C8110020D0110020D0110020B3
:104E0C00D8110020D8110020E0110020E011002062
:104E1C00E8110020E8110020F0110020F011002012
:104E2C00F8110020F81100200012002000120020C0
:104E3C00081200200812002010120020101200206E
:104E4C00181200201812002020120020201200201E
:104E5C0028120020281200203012002030120020CE
:104E6C00381200203812002040120020401200207E
:104E7C00481200204812002050120020501200202E
:104E8C0058120020581200206012002060120020DE
:104E9C00681200206812002070120020701200208E
:104EAC00781200207812002080120020801200203E
:104EBC0088120020881200209012002090120020EE
:104ECC009812002098120020A0120020A01200209E
:104EDC00A8120020A8120020B0120020B01200204E
:104EEC00B8120020B8120020C0120020C0120020FE
:104EFC00C8120020C8120020D0120020D0120020AE
:104F0C00D8120020D8120020E0120020E01200205D
:104F1C00E8120020E8120020F0120020F01200200D
:104F2C00F8120020F81200200013002000130020BB
:104F3C000813002008130020101300201013002069
:104F4C001813002018130020201300202013002019
:104F5C0028130020281300203013002030130020C9
:104F6C003813002038130020401300204013002079
:104F7C004813002048130020501300205013002029
:104F8C0058130020581300206013002060130020D9
:104F9C006813002068130020701300207013002089
:104FAC007813002078130020801300208013002039
:104FBC0088130020881300209013002090130020E9
:104FCC009813002098130020A0130020A013002099
:104FDC00A8130020A8130020B0130020B013002049
:104FEC00B8130020B8130020C0130020C0130020F9
:104FFC00C8130020C8130020D0130020D0130020A9
:10500C00D8130020D8130020E0130020E013002058
:10501C00E8130020E8130020F0130020F013002008
:10502C00F8130020F81300200014002000140020B6
:10503C000814002008140020101400201014002064
:10504C001814002018140020201400202014002014
:10505C0028140020281400203014002030140020C4
:10506C003814002038140020401400204014002074
:10507C004814002048140020501400205014002024
:10508C0058140020581400206014002060140020D4
:10509C006814002068140020801400200000000018
:1050AC0000000000A41B00200C1C0020741C00201D
:1050BC0000000000000000000000000000000000E4
:1050CC0000000000000000000000000000000000D4
:1050DC0000000000000000000000000000000000C4
:1050EC0000000000000000000000000000000000B4
:1050FC0000000000000000000000000000000000A4
:10510C000000000000000000000000000000000093
:10511C000000000000000000000000000000000083
:10512C000000000000000000000000000000000073
:10513C000000000000000000010000000000000062
:10514C000E33CDAB34126DE6ECDE05000B00000027
:10515C000000000000000000000000000000000043
:10516C000000000000000000000000000000000033
:10517C000000000000000000000000000000000023
:10518C000000000000000000000000000000000013
:10519C000000000000000000000000000000000003
:1051AC0000000000000000000000000000000000F3
:1051BC0000000000000000000000000000000000E3
:1051CC0000000000000000000000000000000000D3
:1051DC0000000000000000000000000000000000C3
:0851EC000000000000000000BB
:04000005100001E9FD
:00000001FF
